:020000041000EA
:1000000000B5324B212058609868022188439860DF
:10001000D860186158612E4B002199600221596106
:100020000121F02299502B49196001219960352056
:1000300000F044F80222904214D00621196600F024
:1000400034F8196E01211966002018661A6600F04E
:100050002CF8196E196E196E052000F02FF8012189
:100060000842F9D1002199601B49196000215960AB
:100070001A491B48016001219960EB211966A021F2
:10008000196600F012F800219960164914480160C1
:100090000121996001BC002800D000471248134993
:1000A000086003C880F30888084703B5996A0420EC
:1000B0000142FBD001200142F8D103BD02B5186610
:1000C0001866FFF7F2FF186E186E02BD00000240BE
:1000D000000000180000070000035F00212200005C
:1000E000F4000018222000A00001001008ED00E03C
:1000F00000000000000000000000000074B24E7A12
:1001000000200420F7010010CB010010CD010010E9
:10011000C9010010C9010010C9010010C901001077
:10012000C9010010C9010010C9010010CF01001061
:10013000C9010010C9010010D1010010D301001045
:10014000C1010010C1010010C1010010C101001067
:10015000C1010010C1010010C1010010C101001057
:10016000C1010010C1010010C1010010C101001047
:10017000C1010010C1010010C1010010C101001037
:10018000C1010010C1010010C1010010C101001027
:10019000C1010010C1010010C1010010C101001017
:1001A000C1010010C1010010C1010010C101001007
:1001B000C1010010C1010010C1010010C1010010F7
:1001C000EFF30580103800BE00BE00BE00BE00BECA
:1001D00000BE00BEF2EB88713CD4001068D4001061
:1001E0003802001090A31AE71E481F49086006C88D
:1001F00081F3088810471D480068002801D019487D
:10020000F3E70DA40ECC002902D000F012F8F9E7B4
:100210001749184A002000E001C19142FCD116495B
:100220008847164988471649884700BEFDE701C937
:1002300001C29A42FBD3704768D40010C00000206E
:100240004C260020F4F900100000042000000420D7
:10025000F4F9001000100420001004200000000039
:10026000704700000000000008ED00E0000000D032
:100270004C2600209C3800202D6A0010210300101D
:10028000256A0010F8B5C0460448054B10B58342F6
:1002900003D0044B002B00D0984710BD4C26002003
:1002A0004C2600200000000006480749091A8B1060
:1002B000C90FC91810B5491003D0044B002B00D04A
:1002C000984710BD4C2600204C260020000000005E
:1002D00010B5074C2378002B09D1FFF7D5FF054B4C
:1002E000002B02D0044800E000BF0123237010BDA2
:1002F000D8290020000000008CC30010054B10B569
:10030000002B03D00449054800E000BFFFF7CCFFF5
:1003100010BDC04600000000DC2900208CC3001086
:1003200000B5B5B006F0B4FC192001F025FBD023D0
:1003300080221B0692045A620C485A6106F0FCFCAB
:100340000B4806F0F9FC01A800F016F801A800F02F
:100350002DF8084806F0F0FC01A800F02BF801A8E1
:1003600000F010F8002035B000BDC04690C300106A
:10037000B0C30010CCC3001010B5040000F01EF88C
:10038000200010BDB42310B50400C0582300220083
:10039000BC33B432984203D09168013104F056FF67
:1003A000200000F0C7F8200010BDC04610B506F0D0
:1003B0006FFC10BD10B500F01DF810BD70B5040045
:1003C0002500261D00F0B2F80C35300001F064FA6B
:1003D000280000F061FE3000054901F061FAFA20C2
:1003E000C00002F047FA280000F0C0FE200070BDF7
:1003F00088130000F0B557464E46DE4645460C23AE
:10040000E0B58DB0994608AB9A46B4239B46454A61
:10041000454B83448144904602935A46031DCB4684
:1004200007000024994606AE0392584601F00AF9E7
:100430003221200002F0F0FE002940D0484601346D
:1004400001F054FA002835D1380000F077F80A2876
:1004500002D0484601F038FA380000F06FF80A2858
:1004600006D8434680001B5838009F4600F07AF8B3
:100470000A2002F0FFF9D8E700F072F8F8E700F080
:100480006DF8F5E700F068F8F2E700F063F8EFE7E1
:1004900000F05EF8ECE700F059F8E9E700F054F8F6
:1004A000E6E700F061F8E3E700F04CF8E0E700F081
:1004B00047F8DDE70A21380000F03EF8C4E753466C
:1004C0003360B423FB580193039B5D6805950F2DA2
:1004D00018D8012D12D1019B1B783372534600228C
:1004E00075605A553168029806F0AEFC3068504588
:1004F000A4D0B168013104F0A9FE9FE7002DEDD032
:10050000504607E00022300005A909F0AFFB059B2B
:100510003060B3602A00019904F08AFE059D3368BB
:10052000DDE7C046F4C80010FCC3001000230360E0
:100530007047C0467047C04601607047006870470A
:100540007047C0467047C0467047C0467047C046B7
:100550007047C0467047C0467047C0467047C046A7
:100560007047C0467047C0467047C04600230362CC
:10057000024B0160027143627047C04600507D44E7
:100580000F22882330B58BB06A441370873B040078
:1005900001790068009309F087FA002304AD2179FE
:1005A00020682A000093183309F088FA2B88E3802A
:1005B0006B882381AB886381EB88A3812B89E381DE
:1005C0006B892382AB896382EB89A3822B8AE382C6
:1005D0006B8A2383AB8A6383EB8AA3830BB030BD22
:1005E00070B50E00150084B019000400006809F011
:1005F00033FA0321300001F091F92800032101F0C2
:100600008DF900220121300001F0A2F9280000221A
:10061000012101F09DF90B22D0236A441370CF3BD6
:10062000217920680A25009309F03EFA00236D44E1
:100630002A00217920680093013309F03FFA2B78D2
:100640000025582B02D0280004B070BD2000FFF711
:1006500097FF054B03AA1380217920680223009598
:1006600009F022FA0135EEE7F42700000F22F72304
:1006700030B587B06A441370F63B04000179006816
:10068000009309F011FA002304AD21792A002068B3
:100690000093063309F012FAEB782A79697912018E
:1006A0001B0313430909E28819431B099B1A5B4387
:1006B0005200C910891A0820225E1B134A430A20DF
:1006C000215ED2124B439B13D3189800C018803080
:1006D0002362001204F0F6FC024904F0A4FC07B007
:1006E00030BDC0460000C842F0B5DE46454657461C
:1006F0004E46E0B591B00AAB9C460F22F723624408
:10070000137001238046059101790068009309F078
:10071000CBF943461979186800230EAC22000093E8
:10072000063309F0CBF923780893617809914146A3
:10073000A0780A90E37822791B03120113436279AF
:10074000C98812091A431B095B1AD2104900521AB0
:1007500041465B4308240E5F1B1356430A240A5F7D
:10076000F61253439B13F6186C4B0E629C4666447C
:10077000F71732003B003000390004F031FC4346EB
:10078000424683461624185F8946029014241B5F54
:1007900006931225545F3B0007940E25505F3200EC
:1007A000C11704F01DFC4246030D0D031D434B46CB
:1007B00004031020105E5A46C1170B9304F010FC7E
:1007C0000A069446020A60460B12024312196B4154
:1007D000802510001900002442462D02928900193C
:1007E0006941002304F0FCFB4A109246CA17914667
:1007F000524649460A4300D18EE002985A460B9B66
:10080000C11704F0EDFB0290069832003B00039103
:10081000C11704F0E5FBC30B4D0409991D434404C3
:10082000029A039BA4185D410B0180210A98490399
:1008300002091343089A12031343C91ACE17F30788
:1008400000264808CA0707990343CF0036196F41AD
:10085000921BBB4110001900314A002304F0C0FB79
:1008600052464B4602F0FEFCCB04460B1E43434669
:1008700004001C20185E4F130D0032003B00C1170E
:1008800004F0AEFB32003B0004F0AAFBCE01420EA6
:1008900032434B1612196B411F0043461A20185E53
:1008A00016002B002200C11704F09AFB4C03C20C67
:1008B0002243CB1492197B4119061D124346140A98
:1008C00018229B5E0C43DE171A0F310111431801E9
:1008D0000019694104F0F0FB124904F0A4FB0599EA
:1008E00004F0A1FB04F016FC80220F4B920503F0EC
:1008F00087FB02000B0000200C4902F0D4FE00220E
:100900000B4B02F000FF02F0BDFF11B0F0BCBB4684
:10091000B246A946A046F0BD0020E0E7000CFEFF6D
:10092000350C00000000C846C05BC83F0000F03F27
:1009300040A5E5400160704710B50400042100683F
:1009400000F0ECFF23681F2B0FD81B075B0F9A00EA
:100950006360D318074A9B009A18116801228A43E2
:1009600005498C4663441A6010BD5B079B0F083332
:10097000EDE7C0460000054000100540F0B54646D2
:100980004F46D6464368C0B59D00160098462A4A91
:10099000EB189B009F18012204681440002913D112
:1009A000264A013C9446E4033A68E40B644414404C
:1009B000234A944663441C60300001F05BFFE0BCB6
:1009C000BA46B146A846F0BD1E481023090481422C
:1009D00017D91D4A45449446AD0065446B601B4BD6
:1009E00080212B61002C09D109023A684A4013404A
:1009F00080225201944667443B60DDE70F4B0906B5
:100A0000F3E702F009FC04F057FB824604F07CFB9C
:100A1000C3B21800994604F055FB011C504604F07F
:100A2000FCFA8321C90504F012FB04F06DFB4A4671
:100A3000C3B212011343CCE70C0005400000FFFFD6
:100A40000C1005404059730700000540FFFF0000EF
:100A5000F0B54546DE4657464E46E0B58FB003AE8C
:100A60003100464A824631CA31C131CA31C131CA28
:100A700031C111CA11C18B4611E0414A013C944673
:100A8000E4033A68E40B644414403E4A4846944602
:100A900063441C60043601F0EDFE5E454ED0738861
:100AA000394A994653465B683188984653461C68D4
:100AB00001231C4043469D00EB189B009F18002912
:100AC000DBD0324B1020090499421AD8180002F0EA
:100AD000A3FB04F0F1FA009004F016FBC3B2180077
:100AE000019304F0EFFA011C009804F096FA8321B8
:100AF000C90504F0ACFA04F007FB019BC0B21B016E
:100B00001843234B4544AD00EB181860214B80215E
:100B10009C46214B65442B60002C2DD0184B0906B8
:100B20003A6848464A40134080225201944667443E
:100B30003B60043601F09EFE5E45B0D153465968D5
:100B4000114B8A0052189200D118534601201B689D
:100B5000096803400A48013B8446DB03DB0B63441E
:100B60000B4008498C46624413600FB0F0BCBB4692
:100B7000B246A946A046F0BD0902D1E720C900103F
:100B80000000FFFF0C1005400C00054040597307A2
:100B90000400054010000540FFFF000001604260B6
:100BA0007047C04670B50D0003C8140001F05AFF2D
:100BB0002800022100F0B2FE0221200000F0AEFE6B
:100BC00070BDC0460D230160037170470C2330B522
:100BD0000025040085B002AAFF3313800A3B017987
:100BE000FF3B0068009508F05FFF064B03AA1380E7
:100BF000217920680223009508F056FF012005B0F6
:100C000030BDC046091D0000F0B5CE4647461E0067
:100C1000002380B517000F22994687B06A441370ED
:100C200001330400884601790068009308F03CFF16
:100C30004B4604AD2A00217920680093063308F062
:100C40003DFF42462B8813806B883B80AB88338006
:100C500007B0C0BCB946B046F0BDC0460F2270B563
:100C600000250123040086B06A44157001790068EC
:100C7000009308F019FF04AA217920680623009543
:100C800008F01CFF6B461020185E6B4612269E5F14
:100C900004F018FA04F03EFA04000D00300004F0ED
:100CA00011FA04F037FA22002B0002F0F7FD0022BF
:100CB0000B4B02F028FD0B4A0B4B02F006FD02F035
:100CC000E1FD0021041C04F0F1F9002804D0201CEF
:100CD000064904F0A5F9041C201C06B070BDC046EE
:100CE00000806640182D4454FB2109400000B443A5
:100CF00068230160037170476B2300B585B003AAB8
:100D000013800023017900680093023308F0CCFEC1
:100D1000012005B000BDC046F0B5C64616000F2242
:100D200098463B2300B588B06A4413703A3B0F00E5
:100D3000050001790068009308F0B6FE002304ACBA
:100D400022002979286800930E3308F0B7FE208826
:100D5000C0BA04F0B7F9E221890504F078F93860E7
:100D60006088C0BA04F0AEF9E221890504F06FF999
:100D70007860A088C0BA04F0A5F9E221890504F0E2
:100D800066F9B860E088C0BA04F09CF9114904F033
:100D90004AF9114904F044F9434618602089C0BA61
:100DA00004F090F90D4904F03EF930606089C0BA52
:100DB00004F088F9094904F036F97060A089C0BAD6
:100DC00004F080F9054904F02EF9B06008B080BC49
:100DD000B846F0BD5CEFA6430000A8410000034305
:100DE000016042608360704710B50400406800F005
:100DF000C3FDA06800F0C0FD012319006268A0686F
:100E00009140D02283401206516253625161936136
:100E100010BDC04670B50125040043682800D026E7
:100E200098403606B06120680BF02AFA2A00636801
:100E30000F209A4072612A00A36800219A407261D3
:100E400001F004FDA3689D40B56170BD8360009B07
:100E50000160C360019B426003610023037570471A
:100E6000F0B50400012585B02049006808F030FE87
:100E70000121606800F052FD0121A06800F04EFDE4
:100E80000121E06800F04AFD206900F075FD2A00AC
:100E90002369D0269A40360672621548726105F0C1
:100EA0004BFF2A00236902A99A40124BB2611A68CB
:100EB00002929B8806228B8020680BF0E1F96B463A
:100EC000DF1D3A000123FF2120680BF079F9236927
:100ED0009D4075613878012806D0FF38434258415B
:100EE000C0B2207505B0F0BD0120FAE740420F0006
:100EF00008C400104CC90010F0B557464E46454690
:100F0000DE46E0B5037D8A46160098468FB0002B7A
:100F100007D140460FB0F0BCBB46B246A946A0463A
:100F2000F0BD04AB0293002302AA13727168326809
:100F30000393881AC01083001B181C011B191C0284
:100F40001B191C041B195B001B188A426BD04149FA
:100F500000240191404900278B46B1460AAD3DE08F
:100F6000202202AB9B18711C08A81F7008F0F6FE27
:100F7000099B3A4AD31AB34269D33200009908A8B0
:100F800008F01CFF099B354A934260D00122594664
:100F900008A808F013FF0398304B099A08991B1A08
:100FA0009A4254D802A808F009FF0898A84203D032
:100FB0000A99013104F04AF94B461A68596801341C
:100FC000891AC9108B005B1818011B1818021B180E
:100FD00018041B185B005B189C4220D261000919A1
:100FE000C90052181168013B56680091089509978D
:100FF000A342B5D1202202AB9B18310008A81F7074
:1010000008F0ACFE099A154B9B1A9E421FD832007D
:10101000009908A808F0D2FE00220199B8E70F4B0A
:10102000039A9A4213D001220D4902A808F0C6FE85
:1010300053460C48196805F007FF029804AB984224
:1010400000D166E70499013104F000F961E7064830
:1010500008F0F4FDD0C5001034C40010FFFFFF3FBE
:10106000A8C4001050C4001038C40010F8B5067DA4
:101070000400002E0ED0012529000369D0279940D5
:101080003F06B96100680ACA1A000BF0F9F8236933
:101090009D407D613000F8BD70B504002F4D82B0D9
:1010A00076222900FFF762FA200029002830FFF796
:1010B00089FD200029003030FFF71AFE200096221B
:1010C000274992013830FFF769FD0D232000254D97
:1010D0000193013B290000930E2203334030FFF7B8
:1010E000B5FE200010230D2229005830FFF778FEAE
:1010F000200006216430FFF71DFC19238022E366DF
:10110000002323676367A367E367A3500432A350F8
:101110000432A3500432A3500432A3500432A3502B
:101120000432A3500432A3500023002520000432CF
:10113000A3500432A352A633E554B0300233E0503A
:1011400026000949A03A04F073F804232000A836C9
:101150007360B033E55402B070BDC046F02000208B
:10116000004003400000044074C40010F0B5DE46A7
:101170004E46454657460400E0B50125A5B0AD48AA
:1011800005F0DAFDE06E00F0F7FB2A00E36ED026F2
:101190009A40FA20360672624000726101F06AFBE2
:1011A000E36EA5499D40B561A44EA54D3200A54B07
:1011B000280005F049FE64239846A0444046FFF706
:1011C000BBFBFA21642240468900FFF7D7FB3200BF
:1011D0009D4B9E49280005F037FE032202219C4BBF
:1011E0002000FFF7FDF9A0239A49E054200099461A
:1011F000FFF77AFA03F08EFF974F009001913A00C3
:10120000202107A805F0B0FB4B46E35C3200002B21
:1012100000D1924A2700924907AB2837280005F0F1
:1012200013FE3800FFF7D2FCA123E05438009946A2
:10123000FFF714FD03F06EFF8A4F009001913A0012
:1012400020210FA805F090FB4B46E35C3200002BF9
:1012500000D1824A0FAB8449280005F0F5FD20003B
:101260003030FFF749FDA2233200E054002800D1BE
:101270007A4A27007D4B7E492800403705F0E4FD7F
:101280003800FFF7EDFDA3233200E054002800D121
:10129000724A784B7849280005F0D6FD20000122DB
:1012A00000213830FFF77EFC012399464A46A333DC
:1012B0007249E25428003200714B05F0C5FD200050
:1012C0005830FFF791FDA5234A462800E2546D49A6
:1012D0006D4B320005F0B8FDA023E35C002B03D07A
:1012E000A123E35C002B09D1684805F025FD25B05A
:1012F000F0BCBB46B246A946A046F0BDA223E35CC3
:10130000002BF1D0A323E35C002BEDD0A6234A46AB
:101310005F49E25417A8333203F08AFF002200230A
:101320009C200492059300234000069303F086FF5F
:101330009C235B009B4683445B46069317AB0400EB
:101340009A4604900DE001282CD14A461278227268
:1013500000226360F25404239C461834E244A345FF
:1013600023D0534626001B68083699462660002B7A
:101370005CD018000AF0DCFC0500030003900F2885
:10138000E1D90022200003A908F070FC0600039BAD
:101390002060A36030002A00494603F049FF039B08
:1013A0002668D5E70028D3D0F4E75B4619AC2100C6
:1013B0000593384B179421CB21C11B8838000B8033
:1013C0000A236E2118936B465B181A7017A904AA9A
:1013D000FFF792FD1798A04203D01999013103F04D
:1013E00035FF2D4805F0A8FC4046FFF731FB049C73
:1013F000059DAC420CD0230020680833984210D0E1
:10140000A1681834013103F021FFA542F3D1049DF6
:10141000002D00D16BE706992800491B03F016FF49
:1014200065E71834A542E6D1049DF1E71B4808F0B2
:10143000EDFBC046ACC40010DCC400107CC400103E
:101440008CC40010D4C40010E0C40010E8C4001024
:10145000801A060000507D44F0C4001084C40010BF
:10146000F8C4001000C500100CC5001014C5001011
:1014700020C5001028C5001034C5001044C5001058
:101480003CC5001058C500104CC50010B8C5001070
:1014900054C9001094C50010A0C5001060C500100C
:1014A000F0B5664CA544040001F08EFA002900D185
:1014B00083E0FA220023920001F0ECFE0600902364
:1014C000E05803F027FE8C2312901391E05803F0AC
:1014D00021FE882310901191E05803F01BFE842315
:1014E0000E900F91E05803F015FE80230C900D91A3
:1014F000E05803F00FFE0A900B91E06F03F00AFE34
:1015000008900991A06F03F005FE06900791206FE7
:1015100003F000FEA32304900591E35C8021039374
:10152000A223E35C464D0293A123E35C2A000193CE
:10153000A023E35C890000931CA8330005F014FA93
:1015400018AE1CA816960AF0F3FB050003001590D0
:101550000F283DD8012836D170216A4660205218E4
:101560006946127809180A70310000221793CA548C
:10157000A82322002500E058B032A835904236D08A
:10158000169AB24241D0AD68E250AC23179F189929
:10159000E7500433E150002833D01690189500230B
:1015A000179303701698B04203D01899013103F0D5
:1015B0004DFE9D239B009D44F0BDFA21890001F062
:1015C0002BFE06007BE731000028CED0300007E07C
:1015D000002215A916A808F049FB159B1690189330
:1015E0001CA92A0003F024FE159B1699BDE7169A44
:1015F000B2420AD0E250AC2317981899E050043355
:10160000E150169618AE3000C9E7179A002A07D0A5
:10161000012A0AD0310003F00BFEA823179AE058E4
:1016200000236A6083541698B9E76B465F329B18B3
:101630001B780370A823179AE058F1E78CFDFFFF91
:10164000D4C50010F0B5C646A02300B5C35C0400A5
:10165000E6B0002B12D1A123E35C002B1AD1A22308
:10166000E35C002B3CD12000FFF71AFFA623E35CCC
:10167000002B54D166B080BCB846F0BD8349FFF75B
:1016800033F820672000FEF7F1FFA1236067E35CD9
:10169000002BE4D0270020AD1AAE28372A003100F5
:1016A00026AB38009846FFF7AFFA0023F05E03F050
:1016B00009FD9423E0500023E85E03F003FD982326
:1016C000E05043460020185E03F0FCFC9C23E050F1
:1016D0003800FFF7C3FAA223A067E35C002BC2D057
:1016E00020001AAB26AA20A93030FFF715FB209B5B
:1016F000219AE3678023E250229A0433E250269A2B
:101700000433E250279A0433E250289A0433E2501B
:101710002000FFF7C5FEA623E35C002BAAD0230020
:10172000A8335A682000A8235830E158FFF772FB0D
:1017300001F04AF9002900D18EE0FA22002392003C
:1017400001F0A8FD06009C23E05803F0E3FC982379
:1017500016901791E05803F0DDFC94231490159136
:10176000E05803F0D7FC902312901391E05803F057
:10177000D1FC8C2310901191E05803F0CBFC88230E
:101780000E900F91E05803F0C5FC84230C900D914E
:10179000E05803F0BFFC80230A900B91E05803F05F
:1017A000B9FC08900991E06F03F0B4FC0690079132
:1017B000A06F03F0AFFC04900591606F03F0AAFCEA
:1017C00002900391206F03F0A5FC0090019180210D
:1017D0002F4D33002A00490026A805F0C5F8402304
:1017E0001CAE320098462B4B1A9603CB03C21B88C3
:1017F0001AAF13800A237B600023A044BB7422AC81
:1018000026A820940AF094FA0500030019900F28E6
:101810002DD8012826D198216A4688205218694679
:10182000127809180A702100002221934046CA54F8
:10183000390020AAFFF71AFC2098A04203D0229971
:10184000013103F003FD1A98B04200D112E7B968E4
:10185000013103F0FBFC0DE7FA21890001F0DCFC0B
:10186000060070E721000028DED0200007E00022FB
:1018700019A920A808F0FAF9199B2090229326A90B
:101880002A0003F0D5FC199B2099CDE700507D4438
:101890002CC6001094C500100023036043607047FD
:1018A00010B54160040001F08FF8002906D0FA223B
:1018B0000023920001F0EEFC206010BDFA218900A7
:1018C00001F0AAFCF8E7C04610B5040001F07CF86E
:1018D000002906D0FA220023920001F0DBFC2060F0
:1018E00010BDFA21890001F097FCF8E710B504005B
:1018F00001F06AF800290BD0FA220023920001F0CF
:10190000C9FC2368C31A606898428041404210BDF8
:10191000FA21890001F080FCF3E7C046094A830000
:101920009A1810B514684022544080322240064C68
:10193000C000A44663441A60044B9C466044416066
:1019400010BDC04604C0014004D001400040014029
:10195000074B8000C3181B68C90092000A435A4015
:101960000C231340034A9446604403607047C0460A
:1019700004C0014004D001400123D022834012065C
:1019800093629361094A83009A181168402251407A
:1019900080320A400649C0008C4663441A60054BF9
:1019A0009C460523604443607047C04604C0014024
:1019B00004D00140004001408023DB051868000F7F
:1019C0007047C0460FB400B5084883B005F0B4F9BD
:1019D000049B002B07D005A91800019104F0E8FF33
:1019E000034805F0A9F9012004F0FAFFA4C600108D
:1019F000A8C4001070B5EFF3108C72B60D4D2B68B3
:101A0000002BFCD0BFF35F8F0724CB08C618C05C47
:101A100001230C40A3401C000440034207D118439B
:101A20003070BFF35F8F2C608CF3108870BD100096
:101A3000FFF7C8FF2C0100D0F8B54746CE468846D0
:101A400080B5EFF3108C72B6214D2C68002CFCD0C1
:101A5000BFF35F8F9A422CD8D4080727055D06197B
:101A600001241740BC402C421FD007210127894682
:101A700009E0D408055D06194C4639001440A14020
:101A80000C00294211D001329342F2D2012040428F
:101A9000BFF35F8F00220E4B1A608CF31088002872
:101AA0000FDBC0BCB946B046F8BD25431000357009
:101AB000EEE7BFF35F8F00232B608CF310880120CB
:101AC00040424346002BECD00898FFF77BFFC0460E
:101AD0002C0100D0044A1078431CDBB2172B00D92C
:101AE000102313707047C0461420002010B5064B19
:101AF000064C82B00100009318221F232000FFF73C
:101B00009BFF02B010BDC046B4C60010D433002005
:101B10000021044B044ABFF35F8F02C39342FAD102
:101B20007047C046000100D0800100D0054B064A36
:101B30001360064A136053609360D360136153616E
:101B4000936170478080808000E400E004E400E05E
:101B50001F2318401E3B8340002905D0C021044AA2
:101B60004900535013607047802201498B50FAE7B7
:101B700000E100E001228240034B1B6813405A1E23
:101B80009341D8B27047C04600E100E00123834092
:101B9000014A13607047C04600E200E0064B103077
:101BA0009B688000C358054A00209B1A2F229A4246
:101BB0004041C0B27047C04600ED00E01820002050
:101BC00070B50D00EFF3108672B60F4A1368002B44
:101BD000FCD0BFF35F8F0D4B10309B6884001B5906
:101BE0000B4A934203D09D4201D001F0C3F9074B49
:101BF0009B681D51BFF35F8FBFF35F8F0022024BC5
:101C00001A6086F3108870BD240100D000ED00E05A
:101C1000C1010010F0B557464E46DE464546E0B5D8
:101C200085B0060000911700EFF3108B72B66A4A78
:101C30001368002BFCD0BFF35F8F0025674B5D5707
:101C40009A46002D00DAA9E06B00654C01935B1900
:101C50009B009846A146C1444B4652469B7910369C
:101C60001370604BB6009B6899590B1B2F2B33D90F
:101C70005D4B994200D0ACE0019B42469C465B4BD9
:101C80006544AD0063535A4B0232A218043B9B1AC1
:101C90001B05584A5B0D651913436B80564B012198
:101CA000AB80FF23AB71009BEF71AB604B460B43E6
:101CB00019004C4B9B689951BFF35F8FBFF35F8F47
:101CC0000022454B1A608BF3108805B0F0BCBB4670
:101CD000B246A946A046F0BD01200A008243D3794E
:101CE0008C46BB4231D84546130044491B1B5B411F
:101CF0005943090D3D4B63533D4B02356519043B78
:101D00005B1B1B053B4D5B0D2B43AA464D466B8071
:101D10000425AC465546E044131F44441B1B1B05D9
:101D20005B0D1D434B46997100999D809960494612
:101D3000DF71334B01431360BBE75800C0188000CC
:101D40002018C179B9422FD902000623D356002B9F
:101D5000F3DA02932B4B61460393131D9A46042337
:101D60005B429C46E14450464B461B1A1B055B0DEB
:101D70009C46204B957198466346404603439380AA
:101D8000019B5A199200039BA418A380029B1C4A32
:101D9000A371009B2260E771A3608AE701F0EAF873
:101DA000002553465D574FE7908802934005131D69
:101DB0009A46031561469C464046D4446346043027
:101DC0002018181AE0230005400D1B021843039049
:101DD000C5E701F0CFF84FE7240100D09538002087
:101DE0001820002000ED00E0C101001000A1FFFF5D
:101DF0004820002000E0FFFF01BDFFFFAAAA00006D
:101E00000148804701BD0000F0B5DE4657464E460A
:101E10004546E0B50C0083B0EFF3108872B6634A14
:101E20001368002BFCD0BFF35F8F614B61499A6848
:101E3000030010339F00D55900938D4243D0A54233
:101E400054D05D4EAA1B2F2A3DD85C4B9C461B6884
:101E50009A4601231A0099468240534613401F2296
:101E600001934B46024093409A4680226346504677
:101E70009850BFF35F8FEFF305839B46002B37D05D
:101E8000009B5B4501D001F075F82A004B469A4350
:101E90009068844208D177E04B005B189B00F318F0
:101EA0009868844236D01A00062151560029F3DA88
:101EB000844255D0019B002B27D0C02251463F4B76
:101EC0005200995019603A4B9B68DD51BFF35F8F08
:101ED000BFF35F8F0022354B1A6088F3108803B080
:101EE000F0BCBB46B246A946A046F0BD0D00EAE7ED
:101EF0002A004B469A4390688442D5D1062010565A
:101F0000130000280ADA0D0032E0802351462B4AE4
:101F1000D150D8E706201856002822DB42001118BD
:101F2000890074188946A1689960E179D971062100
:101F300061569971002925DBA488F11A64052415DE
:101F40004C440919E0240905490D240221439980D4
:101F500013181B4A9B001178F31899711070A9E7A8
:101F600013005946002914D1FF3191711549918010
:101F700013490A789A71144A9B1B5B415A43120D0C
:101F80000A7097E71149E2E706201056130000286F
:101F9000C4DA0F4A0F49D21A083A5002400D0143E1
:101FA00099800D4952080A43DA8083E7240100D062
:101FB00000ED00E0C10100101820002000E100E069
:101FC0009538002001BDFFFFAAAA000001BD000056
:101FD0005220002000F0FFFF00F8FFFF70B5012441
:101FE0000443EFF30581EFF3108C72B6214A1368B6
:101FF000002BFCD0BFF35F8F1F4B05001F4AED1A6B
:102000006D416A43120D1E4D8900AE6852B276587A
:10201000A6421CD00621595691421CD01221595675
:10202000914222D01E215956914220D02A21595640
:102030000324914210D0134B19781A708171BFF3A9
:102040005F8F00220B4B1A608CF3108870BDAB6859
:102050000D4C5C50EFE700246100091989005B1802
:10206000FF21997109499980E5E70124F4E70224E9
:10207000F2E7C046240100D018200020AAAA0000E0
:1020800000ED00E095380020C101001001BDFFFF08
:1020900010B5084B084C82B00100009300220523C4
:1020A0002000FFF7C9FC002801DB1F23181A02B02B
:1020B00010BDC046D0C6001099380020024B9C4687
:1020C00061448900016070474000003470B5114CD4
:1020D000114DAC420FD2FF262368002B0CD0FFF726
:1020E000F9FC01002000FFF7E9FFA680BFF35F8F36
:1020F0000834AC42F0D370BDFFF7ECFC01002000C7
:10210000FFF7DCFF2671BFF35F8F0834AC42E3D3E7
:10211000F1E7C046442600204C26002010B50400FC
:10212000FFF7D8FC01002000FFF7C8FFFF23237151
:10213000BFF35F8F10BDC04610B504000120FFF74C
:10214000D5FC034BC3189B002360BFF35F8F10BD0A
:1021500040000034034B9C46614489000160BFF39A
:102160005F8F7047400000340A4B1968EFF310800E
:1021700072B60A68002AFCD0BFF35F8F1B68BFF3FA
:102180005F8F00221A6080F3108840BF002000217A
:102190007047C0466C380020F0B5DE4657464E46C4
:1021A0004546E0B583B0EFF3058203231340B54AFB
:1021B000990052580091904601229A409346B24BA2
:1021C0001A60B24B01935B46B14843634346082211
:1021D0009B5E9946002B3ADA43469B881BB2002B44
:1021E00000DB9DE043469B79002B00D0E1E04346B5
:1021F00008241C5F002C20DB43465A6963001B192E
:10220000DB00D3189D68DC686B1C00D103E1A0489B
:10221000009984466144826A0B69AE1A9B1A9E42F9
:1022200013D35A46036A1A420FD0994800F0C4FBF0
:102230008C4202DCC7D18542C5D940BF03B0F0BC97
:10224000BB46B246A946A046F0BD0D61EDE7424649
:1022500052695B0092464B44DB009A4453469E68A9
:10226000DF6800F0A9FB8F42B6DC00D1F8E0002F58
:1022700000DAD9E05246534654691B69019A9342E9
:1022800000D1CCE0414652460820085E5288000446
:1022900021001043984704000D0023002B4300D178
:1022A000C2E0002D00DBDFE030003900001BA94157
:1022B00053469860D96000229A5E002A00DA8BE7C4
:1022C00043465D6953009C18E4002C19A768E46834
:1022D0008C4200DD80E702D1874200D97CE7464688
:1022E000328108360DE08C4200D1C6E01E0000238A
:1022F000F25E002A0ADB53009C18E4002C19A76840
:10230000E4689B18DB00EB188C42ECDD53461A8026
:102310004B46338043469B881BB2002B00DA61E7B3
:1023200043461A69EFF3108172B61368002BFCD094
:10233000BFF35F8F43469E88012342465B429380F2
:1023400036B21369BFF35F8F00221A6081F31088E1
:10235000002E00DA46E743465D69083342469C4654
:102360007700BF19FF00EF19BB6860469846082345
:10237000D15E9246FC68002907DA0EE0A24246D000
:1023800018000023C15E002906DB4B005B18DB0050
:10239000EB18DA68A242F1DD524606800023FE5EA9
:1023A0003980002EDCDA904643469B79002B00D121
:1023B0001DE7002342469371434646460821595E75
:1023C00008364B1C00D138E747468946556902E07C
:1023D00006004B1C18D04B005B18DB00E8180A0005
:1023E0008C46E95E43881BB2002BF1DA01235B4285
:1023F000DC178360C4604A4503D031803B89038089
:102400003A81E1464B1CE6D1B8464C46F2E69A6862
:102410004245B5D9C0E7631C00D0F8E605E72000C7
:1024200023699847002825D1534642461B881381CB
:102430001269EFF3108372B611680029FCD0BFF364
:102440005F8F4246514652880A8042464946518033
:102450001269BFF35F8F0021116083F31088BBE620
:10246000864200D803E7B7E6094800F0A5FA00194C
:1024700069411DE7656824680FE7874200D835E7A2
:1024800044E7C046503800203C70054099210010B8
:102490000040054070B52E4C2569002D04D00A215E
:1024A0002C48FFF70BFE70BD2B4E0321300000F0CF
:1024B00079FAE660FFF70EFB284B03229C46D023F7
:1024C00022701B061B6801216370254B6044A360CA
:1024D0000F23800020610220638063694942A1804C
:1024E00019800231198647311D83585218315A52CA
:1024F00075325C39995218320131995218320131D2
:102500009952183201319952083518329D520231D0
:1025100018329952183201319952183201319952B8
:102520001832013199521832013199521832013161
:1025300099520C4B0C49DC6001303562FFF740FBCF
:1025400001210320FFF704FB084B1D60A7E7C046ED
:10255000602000206C38002000400540400000341E
:10256000FFFF10005038002099210010386005400E
:102570000048704760200020F8B51F0008AB1B78AA
:1025800004001600002B08D100F01EFA32003B00B8
:10259000121A8B41002B00DA53E02269EFF310800E
:1025A00072B61368002BFCD0BFF35F8F0223E15E8D
:1025B00063694A005218D2009B18002937DB1A8839
:1025C00062802269BFF35F8F0025156080F3108859
:1025D000069A9E60DF601A61079A5A615A88013232
:1025E0005204520C101C002A1FD082B258800804DA
:1025F00010432669EFF3108772B63268002AFCD0C8
:10260000BFF35F8FA2881A80A1802369BFF35F8F19
:1026100000221A6087F310880B4923788C46013218
:102620009A40E36863441A60F8BD0120DDE723693E
:10263000BFF35F8F00221A6080F3108801204042B0
:10264000F2E70020F0E7C0463C20000070B5010032
:102650000469EFF3108C72B620680028FCD0BFF339
:102660005F8F02200D5E4C6968004019C00024187D
:10267000002D37DB208848800869BFF35F8F002674
:1026800006608CF31088E36063880498013320614E
:102690005B0405985B0CA26060611A1C002B1FD0C4
:1026A00093B22804628018430A69EFF3108C72B663
:1026B0001368002BFCD0BFF35F8F8B8823808D8045
:1026C0000B69BFF35F8F00221A608CF310880B78C0
:1026D00001329A40CB6808498C4663441A6070BD49
:1026E0000122DDE70B69BFF35F8F00221A608CF3D4
:1026F000108801204042F2E73C20000010B54389D9
:102700000A1493421ADD53009B184269DB00D31868
:102710000469EFF3108C72B62268002AFCD0BFF374
:102720005F8F5A88090494B2090C8A4208D0036961
:10273000BFF35F8F00221A608CF31088002010BD59
:102740008022120214435C80012302698371BFF36B
:102750005F8F002111608CF31088044902788C4649
:102760009340C268012062441360E8E73C20000007
:1027700040787047F0B504000D0006267642F71742
:10278000C64636196F4100B582B08F4214D811D0B9
:1027900000F01AF932003B00121A8B41002B17DCB3
:1027A000002B47D02000290000F04CF902B080BC7B
:1027B000B846F0BD8642EBD90022002316001F0068
:1027C00000F002F932003B00121A8B41002BE7DDCA
:1027D00000F0FAF832003B00121A8B41002B0ADBA2
:1027E00000230193154B3200009315483B00FFF77F
:1027F0002DFF0028D6DB00239C46B046114A124E1E
:10280000736A9F4204D8B16A8845CBD99F42C9D127
:102810001168EFF3108072B60B68002BFCD0BFF389
:102820005F8F1368BFF35F8F6146196080F3108874
:1028300020BFE5E7002AB5D0CAE7C04669210010ED
:10284000602000206C3800200040054070B5040076
:102850000D0000F0B9F88023001969411B06994268
:1028600002D3012002494042FFF784FF70BDC046F9
:10287000FFFFFF7F70B5060000F0A6F8FA22040003
:102880000D00002330000021920002F0A9FB8023FC
:10289000001969411B06994202D3012002494042B6
:1028A000FFF768FF70BDC046FFFFFF7FF0B5D6465B
:1028B0004F464646C0B504000D0082B0EFF30587D1
:1028C0008946002F0ED0344900204B6AAB4203D317
:1028D0008A6A0130A24226D302B0E0BCBA46B146B1
:1028E000A846F0BD2D4B9846DB689A4643465046B5
:1028F0001E7800F061F80B00514602000436B60065
:10290000715820008E1A2900801A99418F4211DCDB
:102910000ED020BF204A0020536A4B45DCD3926A78
:102920000130A242D8D25B1B5A1E9341D8B2D3E7E2
:102930008642EED900F048F822002B00121A8B4193
:10294000002B1ADB00230193154B22000093404615
:102950002B00FFF77BFE011E0FDD0F4B5A6A4A4525
:1029600017D39B6AA34212D34046FFF7C7FE0A4A19
:102970000020536A4B45AFD3D1E7074A0020536A82
:102980004B45A9D3926A0120A242A5D2CBE74A4582
:10299000EAD120BFE8E7C0460040054060200020A3
:1029A0006921001010B5024A0248FFF723F810BD54
:1029B000ECC60010D83300200300416A0A00986A70
:1029C000596A8A42FAD17047034B596A0A00986AD9
:1029D000596A9142FAD170470040054070B5040031
:1029E0000D00174A536A1900966A536A8B42FAD14E
:1029F0003000190024184D41AB4216D813D0104AAC
:102A00002B00526A954203D90D494A6A9A42FCD377
:102A10009A4207D10A4A02E0516A994202D1916A68
:102A2000A142F9D370BDA642E9D9054B5B6A1C00EF
:102A30005A1CEFD0012301246442E5175B42E3E70F
:102A400000400540064A536A9942FCD807D1044B1E
:102A500002E05A6A914202D19A6A8242F9D37047DF
:102A600000400540F8B5040006200D0000F078F99C
:102A7000002844D0374B3849E3185A1E934180222E
:102A8000120494465B429B0D344A9B0563441360D9
:102A9000334A136018000A689043FBD12D4B314A2A
:102AA000E31859424B4180215B00490006209952AE
:102AB00000F056F92900C00000F0AEFB0130C30958
:102AC0001ED1402701226262A362266BF30722D443
:102AD000E36A254B0620E51800232B60266300F0EF
:102AE0003FF93900800000F097FB7023E26A5A40FA
:102AF0000E3313402B601D4B23630323A364F8BDE7
:102B00001B4A93421ED900231A4A1B4F6262A362DA
:102B1000266BF307DCD5194B144AE3181A60656A73
:102B2000A36A0620AD01ED1800F01AF9144900F06F
:102B300073FBAD020100280000F06EFB0021FFF7DF
:102B40004DFFC5E74006800E9F011A003F180300A5
:102B5000B9E7C0460080FCBF08C0004000E000406C
:102B600000F00040783800202C1000000103000025
:102B7000FEFF0000FFFF0000C0FF3F0030300000FC
:102B80004E0E0000F8B5DE464E4657464546E0B5C7
:102B90008B4605000A991800160000F03DFB0A9BC1
:102BA0006C001F02324B64199C46A40064446368A5
:102BB00081469F4200D967602B1FDBB29846012BEC
:102BC00030D9C02380229B01E31812011A60294BDF
:102BD000AD0059599A4600291BD17301E02622689D
:102BE00053401E40802342465B01E3181E60012AC9
:102BF00030D9802380229B01E31812011A605346CA
:102C00004A4667605A51F0BCBB46B246A946A04648
:102C1000F8BD586900F000FB013043001B18033B6E
:102C2000FDD2DAE75B46012BCBD1C02303229B0107
:102C3000E3181A60023AA3681A42FCD07301E02636
:102C40002268AD0053401E4080230A4A5B01924631
:102C5000E3181E605A462168514003220A401A6058
:102C600001225B469A40A3681A42FCD0C1E7C046E5
:102C700000800040DC330020F0B546464F46D64683
:102C8000C0B51F00344B44009C462418A400644483
:102C9000636888461600FF2B02D880235B006360C0
:102CA000031FDBB29A46012B30D9C02380229B013F
:102CB000E31812011A60294B8500595999460029D9
:102CC0001BD17301E026226853401E4080235246E8
:102CD0005B01E3181E60012A30D9802380229B010A
:102CE000E31812011A6080235B0063604B465F515A
:102CF000E0BCBA46B146A846F0BD586900F08CFA6F
:102D0000013043001B18033BFDD2DAE74346012B99
:102D1000CBD1C02303229B01E3181A60023AA368B7
:102D20001A42FCD07301E0262268850053401E4001
:102D300080230A4A5B019146E3181E6042462168DF
:102D4000514003220A401A60012342469340A26880
:102D50001342FCD0C1E7C04600800040DC330020B5
:102D6000014B8000C0587047DC330020F8B50400E8
:102D700021481E0017000D0000F04EFA0100380037
:102D800000F04AFA069B36041B031E432368002BFF
:102D900020DB1A4B1A49E3185A1E934180229201F4
:102DA00094465B421B0B174A1B0363441360164A8D
:102DB00013601F000A689743FBD1144B2560E2188B
:102DC0002123A06013602368002BFCDA0823E6604F
:102DD0001360F8BD3F2322681340AB42D9D1A368EA
:102DE0001B051B0D8342D4D1EE22E368D2021340AF
:102DF000B342CED1EDE7C046001BB7000040FDBF97
:102E000008C0004000E0004000F000400430000036
:102E100010B580241C4BE4051C6000281AD0012347
:102E20001A4C18431A4BDC611A4C44401C6259621C
:102E300098628021144BC90519601748174908602A
:102E4000E021C9041960002A07D18022144B120620
:102E50001A6010BD0E4BD861EBE753019B1A9B0023
:102E60009A18802312015B049A4209D213000D497B
:102E70000B60074B5A608022094BD2051A60E8E7C5
:102E8000094B1A00F3E7C04600B00540D3C007B0B5
:102E9000008005402D3FF84FFCFF01000820014055
:102EA00000A0054040380020FFFFFF008023024AB9
:102EB0009B000B43D362704700800540142310B57C
:102EC0000100188804331B88984710BD162310B5DD
:102ED0000100188802331B88984710BDF8B5474693
:102EE000CE4680B50F1E19D0142399460433040032
:102EF0000025012698464B461888434621681B88C2
:102F0000984701C4431E9841013540420640AF42F4
:102F1000F1D13000C0BCB946B046F8BD0126F8E793
:102F2000142370B50400188804331B880D0005496C
:102F3000984703000020002C01DB0130A04029004D
:102F40009847C04655420000AA23064A1B01136059
:102F50008D235B00D3600449044B19605368002B38
:102F6000FCDA70470040024000B0FA000060024006
:102F70007047C04610B50148FEF724FD10C7001089
:102F800070B5074D074EB54209D20024013E761BAD
:102F9000B60808CD984723000134B342F9D170BD7B
:102FA00040C300107CC30010054B064A06491A6056
:102FB000064A074B1A6010000B689843FBD1704714
:102FC00000E00040BFCDFBFE08C00040FE7F3C009B
:102FD00000F00040044BDB6C002B03D18022034B3C
:102FE000D2021A607047C046000011504C201150A8
:102FF000044A054B1A60054A1368DB018033FBD194
:103000007047C046FFFFFF0100F0004008C00040CD
:103010004022034B9A675A671A67DA667047C046C0
:1030200000F0014010B5FEF773FD10BDF8B527495B
:10303000274C284D641AA6103200302E00D93022B9
:103040002800920002F0F4F8BC2C3BD830202F234B
:103050002C196407204A801BE40F9B1B052B16D9F3
:103060003700002C02D0B300771CEA50001B331944
:103070009B004108EB18C900C9181A605A60083350
:103080009942FAD1012303421CD09843C619B300D8
:10309000EA50731C2F2E15D09B00EA50B31C2E2E25
:1030A00010D09B00EA50F31C2D2E0BD09B00EA5051
:1030B000331D2C2E06D09B00EA50731D2B2E01D001
:1030C0009B00EA50054B9D60F8BDC0460001001012
:1030D000C001001000000020C101001000ED00E060
:1030E000002310B5294C82B0A367FFF72DFF012202
:1030F000274B1A60636C012BFCD10322254B1A600D
:10310000224A936B012BFCD1013300930121224A07
:1031100022480433FFF72AFE052301210093204AA9
:103120002048FFF723FE0022022104201E4BFFF758
:10313000A3FD0022012105201C4BFFF79DFD00226D
:10314000002107201A4BFFF797FD002200210820DD
:10315000174BFFF791FD8023DB0000930022002135
:103160000920134BFFF70EFD0022104B0021062013
:10317000FFF782FD0420FFF7F3FD0E4900F04CF845
:1031800001000020FFF792FE02B010BD0080004059
:103190003CB0004030B00040002F68590080024031
:1031A000008C864700C00240001BB70040597307DF
:1031B000006CDC0240420F0001480421014B18471B
:1031C00080200020DD2E0010124A936F9B0815D23C
:1031D0009066D166002905D0FFE7FFE7FFE7516F52
:1031E000106F704704B580210906C21751400028AE
:1031F00000D0C84309F01CF8002104BDF0B5146EDE
:10320000556E576F166FFFF7E3FF146655665767E5
:103210001667F0BD000000D0114A936F9B0813D2CF
:1032200010665166002905D0FFE7FFE7FFE7516F01
:10323000106F704704B5002801D00020C04308F08B
:10324000F7FF002104BDC046F0B5146E556E576FF0
:10325000166FFFF7E5FF1466556657671667F0BDF2
:10326000000000D094464A4A926F9208624601D20A
:1032700028E0C046F0B5464E346E756E776F366FF7
:1032800000F020F89446424A146655665767166760
:103290006246F0BD94463E4A926F9208624601D261
:1032A00054E0C046F0B53A4E346E756E776F366FA7
:1032B00000F04CF89446364A146655665767166710
:1032C0006246F0BD002B24DB11D000293EDA00B5A8
:1032D000C943404200D1013100F038F8C9434042AF
:1032E00000D10131DB43524200D1013300BD002A3D
:1032F000EBD1002801D1002905D00020C90FC90752
:1033000001D1C043410800B508F06AFF0022002344
:1033100000BD00B500290ADBDB43524200D1013376
:1033200000F014F8C943404200D1013100BDC94347
:10333000404200D10131DB43524200D1013300F061
:1033400005F8DB43524200D1013300BD002923D1EF
:10335000002B18D1002A0CD0BC460D4F38667A6677
:1033600000210023FFE7FFE7FFE77A6F386F67462A
:103370007047002801D00748010000B508F030FF71
:103380000022002300BD02000B0000200021704736
:10339000000000D0FFFFFFFF002B00D0BFE0130CA8
:1033A00028D1002AE7D080B4114F39667A66FFE74A
:1033B000FFE730B4040C7B6F396F1B0423433B667B
:1033C0007A66FFE7FFE7FFE7C04684B27B6F3D6F99
:1033D0001B0423433B667A66FFE7FFE7C0460023F2
:1033E0002C042D0C7A6F386F00196941B0BC7047FE
:1033F000000000D0F0B594460025140E01D1120251
:103400000835140F01D112010435940F01D1920037
:103410000235D40F01D152000135D40B0134254FB0
:103420007C66254C3C660E0C93B2FFE7FFE7FFE796
:103430003C6F6643360C7703BE467343DF0B5B0479
:10344000C01AB941130C7343DB18C91ACE0866437E
:10345000360CB64493B273431F0F1B01C01AB94117
:10346000130C73431F0B1B05C01AB941860D8F0245
:103470003E436643360C092D24DB520A7243801A00
:103480007703460A6643360C16235B1BDE40DF409B
:10349000BF1964466643821B70460435063301003B
:1034A000D940A840C01900D30131A24206D200235E
:1034B000F0BD0000000000D0FFFFFFFF121B013035
:1034C000F3D3F1E709277F1BFE406446A2B27243A3
:1034D000801A00D20139220C7243130C1204821A92
:1034E00099410B007046043513370100F940A8409C
:1034F000801900D30131002B02D1A2420AD2F0BDC3
:10350000013000D30131121BFAD2013BF8D1A242A3
:1035100000D2F0BD013000D30131121BF7E7F0B546
:103520001C0C00D080E00CB400251C0A04D11B0246
:10353000160E3343120208351C0B04D11B01160F63
:103540003343120104359C0B04D19B00960F334387
:1035500092000235DC0B02D192185B4101351C0050
:10356000971864410134464F7C66464C3C660E0C0D
:10357000FFE7FFE7FFE7C0463C6F6643360C770383
:10358000BE4697B27743C01B00D20139C01B00D2A0
:1035900001399FB27743C91BC91B170C77437E04BF
:1035A000FF0B801BB941CE086643360C0C2D33DB74
:1035B000B644120B1F053A431B0B97B27743C01B4F
:1035C00000D201399FB27743C91B170C77433E04E1
:1035D0003F0C801BB941860D8F023E43664329276D
:1035E0007F1BFE400C3D7746AF40BF1930BCA2B2F6
:1035F000ABB272437343801A9941220C7243130C8D
:103600001204801A994102000B000137001BA941E6
:10361000F9D2781E0021F0BD0C277F1BFE407746B3
:103620007F0BAF40FF19E0E700245D1C07D0144F6B
:103630007D663966FFE7FFE7FFE7FFE73C6F95B27E
:103640009EB265436643401BB141150C1E0C654399
:10365000664336042F0C3E432D04401BB141994272
:1036600004D202000B0020000021F0BD01D19042E5
:10367000F7D3801A994101349942F2D3F6E700005A
:10368000000000D0FFFFFFFF44464D4656465F4610
:10369000F0B47047F0BCA046A946B246BB4670479E
:1036A00048404140484018B41B4B5B68FC460193BE
:1036B00008BD04DF5343001018B4174B1B68FC46C9
:1036C000019308BD00DF5D4300109446134A926FDA
:1036D000920809D2624618B40F4BDB68FC4601938E
:1036E00008BD0CDF154600100C4AF0B5146E556E7F
:1036F000576F166F6246FFF7EEFF084A146655666D
:1037000057671667F0BD18B4034B9B68FC460193DE
:1037100008BD08DFB9440010D8270020000000D001
:10372000FFB550404240504059404B40594000E0A6
:10373000FFB5154F4C00640D03D0BC4204D10C03FF
:1037400014D80020090D09055C00640D03D0BC42AB
:1037500004D11C030AD800221B0D1B0501264B4077
:1037600009D44B4003D58B4200D18242FFBD994220
:10377000FCD19042FFBD0B43DB1803431343F5D04C
:10378000C9434918FFBD0000FF07000000B5FFF75F
:10379000CFFF01D0002000BD012000BD00B5FFF724
:1037A000C7FF804100BDC04600B5FFF7C1FF01D98A
:1037B000002000BD012000BD00B5FFF7B1FF01D919
:1037C000002000BD012000BD00B5FFF7A9FF80412A
:1037D00000BD012040054A00121804D85A001218F2
:1037E00001D8002070470120704700000021002808
:1037F00005D17047C1174840401AFAD0C90713B520
:10380000064B1B6898470CBC441CA2401005120BC9
:103810000349091B09051943114310BD68380020ED
:103820001F04000010B54C00620D8023D218DB008D
:10383000D21A5B057E2A10DD9E3A13DACC170903F3
:10384000490819435242D140640001341532202AFC
:1038500005DAD0400843604310BD002010BD084683
:10386000604310BDC80FC018013810BD18B4044B18
:103870005B6AFC46019308BD24DF49480010000044
:10388000D827002018B4044BDB6FFC46019308BD19
:103890007CDFE14800100000D827002018B4044B5A
:1038A0009B6DFC46019308BD58DF654B001000007E
:1038B000D827002018B4044BDB6CFC46019308BDEC
:1038C0004CDF794D00100000D827002018B4044BBD
:1038D0001B6DFC46019308BD50DF154E0010000023
:1038E000D8270020132370B51D78012D19D014DDC1
:1038F0001F48FFF7EBFA06001E48FFF7E7FA1E4CD9
:1039000080223100200001F093FC022D2DD01B48B5
:10391000FFF7D4FA1A4B186070BD1A4B164CA3640B
:10392000F5E7184B144C23606360A360E3602361E8
:103930006361A361E36123626362A362E362236361
:103940006363A363E36323646364A364E364236541
:103950006365A365E36523666366A366E366236721
:103960006367A367E367A364D1E7064BA364CEE76D
:103970005344000053460000D82700204C33000079
:103980006838002021430010F0B54646D6464F4621
:103990001D00924BC0B598464E00760D140088B0BD
:1039A000B044002E4ED08E4B9E424BD000228D4F05
:1039B000BF1B3B0580185941FFF788FF8A4A8B4B94
:1039C000FFF783FE00228A4B00900191FFF7FCFE77
:1039D00000280AD000980199864B0022FFF763FE69
:1039E000854B009001919846B0444346002B1BD074
:1039F000002220002900814BFFF7DEFE00280DD1B8
:103A00000022200029007E4BFFF7CEFE00283BD08D
:103A100043460020002B05DB00210DE0434600203B
:103A2000002BF9DB774907E02200009801992B0071
:103A3000FFF769FE00F086FA08B0E0BCBA46B1466E
:103A4000A846F0BDFFF742FF674A684BFFF73DFE0F
:103A50000022674B00900191FFF7B6FE0028C7D007
:103A6000009801990022634BFFF71DFE624B009006
:103A700001919846002220002900604BB044FFF7D6
:103A80009BFE0028BCD0C9E72000290000F00CFAFA
:103A90000B00020006000F0020002900FFF703FEC4
:103AA0001A220290039100F0D9F900F0FDF94B00C1
:103AB00004000D005B0D09D0494A934206D0002452
:103AC0001A2B00DC7FE0504D24184D4139003000A6
:103AD000FFF7A8FE82464046FFF78CFE22002B002F
:103AE00006000F00FFF70FFE0490059100F0DCF9CF
:103AF00002000B000498059906920793FFF7D3FD87
:103B000022002B000490059102980399FFF7CBFD4A
:103B100032003B00FFF7F7FD049A059BFFF7CCFD51
:103B2000049005915046FFF765FE009A019BFFF750
:103B3000EAFD04000D0000F0B7F902000B000600DA
:103B40000F0020002900FFF7AEFD049A059BFFF748
:103B5000B3FD009A019B04000D0002980399FFF742
:103B6000D2FD2B002200FFF7A7FD00F0EBF94B0080
:103B70005B0D04000D009946002B00D15CE7184B4B
:103B8000994500D158E7514643464B43069807995B
:103B90009A46FFF747FE390082443000FFF742FEA5
:103BA0004B465044C318002B09DD184A93420DDDE3
:103BB000144AEB0FDB071A43002011003CE7EB0F20
:103BC0000020D90738E7C90FCD077FE7002203059A
:103BD00012196B41100019002EE7C04601FCFFFFCF
:103BE000FF070000FF030000EF39FAFE422EE63F18
:103BF0000000E03F0000F03F02FCFFFF0000B0408B
:103C00000000B0C00000F07F000060FEFE07000072
:103C1000F0B54646D6464F460400C0B50D00160026
:103C2000012A56D0D70FBF187F10012F47D003238A
:103C3000D21713409B199B109846012B35D00723B0
:103C400013409B19DB109946012B27D00F231340FB
:103C50009B191B119A46012B15D03300203B1F2BBB
:103C600006D90022FFF7D4FF02000B00FFF74BFD3F
:103C70000B000200FFF747FD5346DB0703D5220088
:103C80002B00FFF740FD0B000200FFF73CFD4B4609
:103C9000DB0703D522002B00FFF735FD0B000200E8
:103CA000FFF731FD4346DB0718D402000B00FFF796
:103CB0002AFDFF0703D522002B00FFF724FD020099
:103CC0000B00FFF720FDF60703D522002B00FFF7BE
:103CD0001AFDE0BCBA46B146A846F0BD22002B0052
:103CE000FFF711FDE1E7C046F0B5C64600B582B06A
:103CF00016001F0004000D0000900191002927DA32
:103D00007B004F4A5B0D9B181CD43422D31A19D464
:103D10001800203845D4353A844682400121494272
:103D200099403000884301003800904302000A4364
:103D300008D1342B49D06246002A3CDB3B00D340FB
:103D4000DB0742D480231B06EB181D00009401956D
:103D500030003900FFF766FD2B0D80460200002B76
:103D600042D038498B423FD02903090B21433BD134
:103D7000354988425CDB802109018A4256DA3049A4
:103D80008C4663445A43314BD318002B52DD3049E3
:103D900000208B4251DC110500222E4B8018594126
:103DA0001EE001222021524284461000C91AC84058
:103DB0009A400243B2E720223900D21A91400A0009
:103DC0003100D9400B001343BAE780231B062000C3
:103DD000E91832003B008024FFF786FF240609190A
:103DE00002B080BCB846F0BD4346002B14D020334F
:103DF000402B14D84346002B09DA009A019B00207F
:103E00001449FFF762FC4346009001915A42009822
:103E10000199FFF7FDFEE3E700200E49E0E73200DD
:103E2000009801993B00FFF7AFFDD9E7054AA6E7E7
:103E30000A00A0E700200021D2E70749D0E7C046EA
:103E400001FCFFFFFF07000000F8FFFFFF03000079
:103E5000FE0700000000F03F0000F07F4B0070B54F
:103E60005B0D04000D00002B0ED00C4EB3420BD0A6
:103E7000D318002B09DD0A498B420ADD094AEB0FF2
:103E8000DB071A430020110070BDCB0F0020D907BB
:103E9000FAE70020110500196941F5E7FF07000066
:103EA000FE0700000000F07F244A4B0094465B0DA3
:103EB0006344F0B504000D005A1C21DB5A1C35D0B8
:103EC000342B1CDA3326F61A3700203F1CD401218C
:103ED000B9400B000121B1400A0012196B41002FBB
:103EE0001EDB0224BC4021000224B4402000160046
:103EF000002544428D4126402B4030001900F0BD82
:103F0000CB0F0020D907FAE720210120891BC840E8
:103F10000121B14003000A0012196B41002FE0DAC1
:103F200020240225A41BE5402900DDE7CB0F044A2D
:103F3000DB071A4300201100E1E7C04601FCFFFF48
:103F40000000F03F264B70B50A0D04000D009A42A8
:103F50003AD00022234BFFF727FC002834D100225F
:103F600020002900204BFFF727FC002802D000206A
:103F70001E4970BD20002900FFF796FFFFF752FC95
:103F80000600FFF737FC02000B0020002900FFF7B6
:103F90008AFB174B174AFFF7B6FBFFF78BFC4B006A
:103FA00004000D005B0DE4D0134A9342E1D0F318F6
:103FB000002B0CDD114A93420DDDCB0F0B4ADB07C2
:103FC0001A4300201100D4E700200021D1E7CB0FD5
:103FD0000020D907CDE70020310500196941C8E765
:103FE000FF0F00000000B0C00000B0400000F07FF4
:103FF000422EE63FEF39FAFEFF070000FE07000001
:10400000F0B5D6464F464646C0B516001F00002202
:10401000BB4B04000D00FFF7B9FB22002B0000286A
:104020003CD13B0D98465B055A0D91460022002B72
:104030003CD020002900B34BFFF7A8FB002837D065
:10404000B14B994531D0984500D16CE0AF4B9845C4
:104050005DD0AC494B46AE4A9A1800D5F1E0342306
:104060009B1A9C46002B11DD1800203800D502E178
:104070000122524282400120634640429840330070
:10408000834338009043034300D0DAE032003B0022
:1040900020002900FFF728FE02000B001000190085
:1040A000E0BCBA46B146A846F0BD0022944BF5E705
:1040B0002A0D53052900580D002B2BD1944B4B444E
:1040C000002F33DB002B22DB3421C91A1FD4080058
:1040D000203855D401235B4284468340012252425A
:1040E0008A40300090430200380098430300134395
:1040F0000DD122002B003429D0D06346002B00DAEA
:10410000ABE03E00DE4022002B00F607C6D40022C2
:104110000023C3E77C4B9A469A4245D10022002FE8
:10412000F6DB7C4BBAE700227A4BB7E77A4A914537
:10413000F9DD3422D31AF6D4180020382AD4353ABF
:104140008446824001214942994030008843010061
:104150003800904302000A43E5D1342B07D0624671
:10416000002A00DA80E03E00D640F607DBD5694A37
:10417000EB0FDB071A43110000200B0002008DE754
:10418000012320225B4284461800521AD0408B4003
:104190000343A3E701222021524284461000C91A9A
:1041A000C8409A400243CDE7584B9A4200D094E071
:1041B000574B4B44002F1FDB002BB4DB3422D31AA8
:1041C000B1D4180020386AD4353A824001214942DE
:1041D000994034008C4321003C00944322000A4360
:1041E000A1D1342B72D0002869DB3E00C6400022EA
:1041F000F60796D5494B51E7474A914587DD34226A
:10420000D31A00D583E7180020383FD4353A8240CE
:1042100001214942994034008C4321003C009443E1
:1042200022000A4300D072E7342B52D000283FDB33
:104230003E00C6400022F60700D469E780231B0633
:104240002CE7002900DA6EE732003B00200029004D
:10425000FFF79AFB02000B0020E720233A005B1ACD
:104260009A40CE4016434EE720223900D21A9140A0
:10427000DE400E4379E7012220205242C01A13008B
:10428000C340180063469A400243F4E6012220210D
:1042900052421400C91ACC409A402243B8E7012286
:1042A000202152421400C91ACC409A4022438DE783
:1042B00020223900D21A9140DE400E43BAE7202274
:1042C0003900D21A9140DE400E4390E70022134B92
:1042D000E4E6802300221B06E0E6D04509D098459D
:1042E00000D0B7E60C4B0022984200DD10E7094BE6
:1042F000D4E6094B0022984200DD12E70023CDE608
:104300000000F03F0000F0BFFF070000FF0F0000BB
:1043100001FCFFFF0000F07FFE0300000000F0FF43
:1043200007B5604601880A0A0230DF2AFAD1C9B20D
:10433000820804D3028840880004104300E000682B
:10434000014A5050039007BDD82700200FB403BC8A
:104350000CBCF0B50124E407634000E0F0B50C0D9F
:10436000CF0F661E3605891B640503D3C94340423F
:1043700000D30131640D03D0661CF60A07D0E41B9C
:1043800000207F00791C89078912803C24031D0DC1
:10439000DF0F6E1E36059B1B6D0503D3DB435242B8
:1043A00000D301336D0D03D06E1CF60A07D0ED1B50
:1043B00000227F007B1C9B079B12803D2D032F1B3F
:1043C000661B58D4A446202E46DA20371400BC4081
:1043D0001D00BD40F24033412A4380185941CB0FA4
:1043E00005D0C943C0430022644250415141624656
:1043F0004D0D28D10D0D07D100281FD024194041A3
:104400004941013A0D0DF9D0640006D3013000D3C3
:104410000131002C01D140084000013A0BD4941C1A
:10442000E40A04D112051144DB071944F0BDD90791
:10443000204B194300E0D9070020F0BD0029DDD151
:10444000002CDBD1F0BD0132C6074008CD07284360
:104450004908002EE1D0D9E73C2E29DA203E40372A
:104460001400BC4000D00124F24014431A00BB40A9
:104470001C43D317ACE7AC46202F08DA20360400E3
:10448000B4400D00B540F84039412843A5E73C2F22
:104490000CDA203F40360400B44000D00124F8403C
:1044A00004430800B1400C43C117EAE710001900AB
:1044B000002494E70000F07FF0B50C0D661E360571
:1044C000891BE60A6405640D02D0651CED0A04D060
:1044D000002001210905803C2403A4461C0D671E11
:1044E0003F05DB1BE70A6405640D02D0651CED0A7D
:1044F00004D0002201231B05803C24037740644440
:1045000097B484B296B27443070C7E43150C6F4384
:1045100080B26843361802D3012000043F183004EB
:10452000350C00197D41844688B29AB250430C0C78
:1045300062431F0C7C438EB27E43921902D3012644
:104540003604A4191604170C3618674101BC81B251
:104550009AB25143040C62431B0C5C4380B2584333
:10456000121802D30120000424181004130C401860
:1045700063412D185E410020474106BC88B293B2CA
:1045800058430C0C6343120C544389B251435B18DB
:1045900002D301210904641819041A0C0918624194
:1045A0006D1856410020474118BCF902720D1143A5
:1045B000F0026A0D1043ED020A0D03D16D1940415E
:1045C0004941013B124E9B1B7600B3420ED26D0057
:1045D00007D30130002671416646354301D14008BA
:1045E00040001B05C918E4072144F0BD0BDA013374
:1045F00006D1013004D101314F0D01D04908F2E755
:10460000E1070020F0BD013631050020EBE7000096
:10461000FF030000F0B51C0D671E3F05DB1BE70A1A
:104620006405640D02D0661CF60A04D00022012342
:104630001B05803C2403D0252D060026F6432E665C
:104640001E096E66CE0FF619B44649004F0D02D012
:104650007E1CF60A03D000200021403F3F033E1B92
:10466000B600B444013F7F05C91B49082E6F0136CF
:1046700076089C02950D25437543ED137543AD13E4
:1046800001356D10F603761B0CB4CC02450D2C439E
:10469000A2B2B3B25A43270C7B43350C6F43A4B28A
:1046A0006C431B1902D3012424043F191C041D0C64
:1046B000A4187D4124196D41009A91B2ACB26143B6
:1046C000170C7C432B0C5F4392B25A43A41802D3BD
:1046D00001221204BF182204230C52187B41019CB2
:1046E0006C431B19520ED9010A434401A01A81B22E
:1046F000B2B2514303145A43360C734387B2774323
:10470000D617D21900277E4136049B191704160CC0
:104710007F185E417316ED18F30100268033754152
:10472000A90F06D16400690AE8055B0A184309D29B
:104730002FE00422944480337541A90AA8059B0AFE
:10474000184326D3404149412404009A019B0D009F
:104750005543641B4343E41A95B286B27543170C64
:104760007E43030C5F4392B25A43B61802D3012230
:104770001204BF183204330C52197B4152429C413F
:10478000002C02D40022013051414008CA071043D6
:10479000490802B06246D7079210084BD218084B5E
:1047A0009A4203D212058918C919F0BD0020002AC7
:1047B00001DC3900F0BD01331905F5E7FD03000008
:1047C000FE070000624618CA94465A46002A20DBBB
:1047D00004E0624618CA944600291ADAC0186141FA
:1047E0005B463B415C46B4405246FA402243444655
:1047F0004D4662416B41904699462B46B3403D4140
:10480000FC401C4352465B46A241AB4192469B464C
:104810007047C01AA1414B463B414C46B44042460A
:10482000FA40224354465D4662416B4192469B46A4
:104830002B46B3403D41FC401C4342464B46A241FF
:10484000AB41904699467047002200B5203200F0F7
:1048500010F8080000BD002200B500F00CF8CA17DF
:104860009A4200D100BDD8430121C907414000BD93
:1048700000220B150AD410B5944600F0A7F81414C2
:10488000013400DA0021CB17144C2047002000210E
:1048900070476244343A0CD40C2A07DA0400914081
:1048A000904052422032D440214310BDD843D943D6
:1048B00010BD203207D40C469440524220321141A0
:1048C000D040204310BD0800C917203203D4524203
:1048D0002032104110BD1800190010BD934800107F
:1048E0004A00520D144BD21A13DDFF2A1EDAD205EC
:1048F000CB0FDB071A43C300400F0903490A0843E3
:1049000010435B0001D301D0013070474308FBD254
:10491000704702D0C80FC00770470A031213013254
:10492000F8D1420F072AF5D1012200E0FF22C80F7B
:1049300000028018C00570478003000000210A00B3
:10494000002104E000210A00C11704E00022002336
:1049500006E0C0460022CB1758405940C01A994182
:1049600030B5184CA21A002903D1010010D0002044
:10497000203A4C1512D104D2013A001849414C0D8D
:10498000FAD3114CA24204D212058918DB07C918C8
:1049900030BDD243520D00200021F5E703D4013A87
:1049A00000184941FBD50B324405C00A4D05284388
:1049B000C90A640003D0002460416141E1E7E0D30B
:1049C0004408F8E732040000FE0700000A0DCC0F8F
:1049D000531E1B05C91A520503D3C943404200D3D5
:1049E0000131520D03D0531CDB0A07D0121B0020EB
:1049F0006400611C89078912803A1203014BD21AA4
:104A000070470000FF030000023225D40C2A1CDA94
:104A10001125AD1A0B002B41083207350600EE4078
:104A2000904091403143F0CC63431A1500235A4122
:104A3000554356435743BF02F41276057619674132
:104A4000ED177F19801BB94170470C220020C91750
:104A5000490001310905DBE70902030E1943000291
:104A60005342203208D40C0019419440D8402043CE
:104A700000225041514170470800C917203B2032A5
:104A8000F1D50020002100227047000000B5FFF79B
:104A90009DFF30A4FFF7B8FF00242C4D2C4ED20709
:104AA00002D3F6436D426641520004D2A246A346A9
:104AB000A846B14603E0A046A146AA46B3466EA466
:104AC000A44601271F26FFF784FE0137013E212F50
:104AD000F9D100BD594684B28DB26C4306147543BA
:104AE0000B145E4382B25A43AD18EA1700D7D24383
:104AF0001204B6182A042B0C121973414046494679
:104B00009D009B17920F2A43904199413E2222E734
:104B1000494684B28DB26C43061475430B145E4350
:104B200082B25A43AD18EA1700D7D2431204B6181E
:104B30002A042B0C12197341504659469D009B17AD
:104B4000920F2A43504159413E2204E7BB4DF09D4C
:104B5000C556F6367D5100001A61140085880A009A
:104B6000FB211900F0B5FEF78FFD404D0C002C40E5
:104B700001D0AC4202D1090D090500201C002C40D7
:104B800001D0AC4202D11B0D1B0500220026ED0214
:104B9000002B04D502266B40694000D476424F19A1
:104BA00004D599420CDD0136694003E0BB4207DAC7
:104BB000013E6B40070010003A000F0019003B0057
:104BC00040B4002A0FD1002B0AD05C0064150134D8
:104BD00009D14C006415013402D10139013B02E0D6
:104BE000002000212EE0FFF715FD3E22FFF734FEE6
:104BF00082468B4600200021804601229207914682
:104C00001DA4A44601271F26FFF7DCFD0137013E46
:104C1000212FF9D14A4653460C3A01246407002754
:104C200052081B0005D49341001979416408F7D15B
:104C300004E05341001BB9416408F1D1CE0749108B
:104C40004008304340BC002E0AD0094C094D01D524
:104C5000E443ED43F60701D10019694100196941A8
:104C60003D22FFF778FEFEF715FDF0BD0000F07F56
:104C70008D305A88A8F64332694FBB610567AC1D79
:104C8000B16E4096FCBAAD0F72DB0BABA66EF507AA
:104C900039BD9FE576ABFE034B6297BA5BD5FF014A
:104CA000D694DBDDAAFAFF005DEAEE5655FF7F00E1
:104CB0006E77B7AAEAFF3F00BCBB5555FDFF1F004A
:104CC000DEADAAAAFFFF0F006F5555F5FFFF0700E5
:104CD000ABAAAAFEFFFF03005555D5FFFFFF010059
:104CE000ABAAFAFFFFFF00005555FFFFFF7F000052
:104CF000ABEAFFFFFF3F000055FDFFFFFF1F000075
:104D0000ABFFFFFFFF0F0000F5FFFFFFFF070000F5
:104D1000FFFFFFFFFF030000000000000002000093
:104D20000000000000010000000000008000000002
:104D30000000000040000000000000002000000013
:104D4000000000001000000000000000080000004B
:104D5000000000000400000000000000020000004D
:104D600000000000010000000000008000000000C2
:104D70000000004000000000F0B5FFF727FE54A43B
:104D8000FFF742FE002904DA204C214D0019694149
:104D9000013A04B4012752A6002201239B0730CE1A
:104DA000B446001BA9410BD47E4220361D003D4174
:104DB0001C00B4401600FE40344362416B4101E0E8
:104DC0000019694166460137212FE8D185B29EB2AC
:104DD000754307147E43190C4F4384B24C43F117BB
:104DE00036190024614109047F183404310C641918
:104DF0007941A40F8800204389178018594104BCC9
:104E000052423E32FFF7A7FDF0BD00006BDE73F4A7
:104E1000FD855C2CF0B54F0050D27F154ED0013788
:104E20004FD0FFF7D3FD04B44902C20D1143400235
:104E300001272BA6B446002200237E4220360D0017
:104E40003D410C00B4400600FE40344344414D4116
:104E5000AE0F05D120002900664630CE121BAB41B3
:104E60000824A4440137212FE7D1890089101218A2
:104E70004B4180BC17A413CC0137784379437C4362
:104E80004F05C912CD17C0196941A702A415CD1746
:104E9000C9196C41DD17801859416C413E22CD176C
:104EA000AC4208D000090E073043090926073143F8
:104EB0002411043AF3E7FFF74EFDF0BD024900204C
:104EC000F0BD02490020F0BD0000F0FF0000F07FBF
:104ED000AAB800006BDE1300A3EF0F0021170B0030
:104EE000F34B98BFEC23F319D6104DCDE3FB470EDF
:104EF0007AB9BC8ADBC18907CC542C021846E1037D
:104F0000053083E7B029F8011E1FE0874505FE0044
:104F1000249E41ACA9807F008117624515E03F00C7
:104F2000E610ABA902F81F008858455500FE0F0097
:104F3000C4AAA90A80FF070056455501E0FF0300F7
:104F4000ABA92A00F8FF010045550500FEFF00004F
:104F5000AAAA0080FF7F0000551500E0FF3F000077
:104F6000AB0200F8FF1F0000550000FEFF0F00001D
:104F70000B0080FFFF0700000100E0FFFF030000BF
:104F80000000F8FFFF0100000000FEFFFF0000002E
:104F90000080FFFF7F00000000E0FFFF3F000000F7
:104FA00000F8FFFF1F00000000FEFFFF0F000000E1
:104FB00080FFFFFF07000000E0FFFFFF030000008D
:104FC000F8FFFFFF01000000FEFFFFFF00000000F0
:104FD0000000008000000000000000400000000011
:104FE00051434343C9188C46110C83B24B4310B450
:104FF000040C614392B280B2504362431C041B0C08
:10500000001910BC59411304120CC01851416144DD
:10501000704700004840414048400E4B5B681847CD
:105020000C4B1B6818470C4A936F9B0802D2094B24
:10503000DB681847F0B5146E556E576F166FFFF7A3
:10504000F6FF054A1466556657671667F0BD014BB3
:105050009B681847D8280020000000D007B54840BA
:105060004140484001E0C04607B54200120E03D05F
:10507000FF2A03D1420218D8C00DC0054A00120E03
:1050800003D0FF2A03D14A020FD8C90DC905012256
:10509000414005D4414001D5814207BD884207BD4A
:1050A0000143491801D0C043001807BD00B5FFF700
:1050B000DBFF804100BDC046491A002808D10846E0
:1050C00070470000C10FC90700D54042002817D023
:1050D000F44603B40B4B1B68984706BC81409E38CE
:1050E0004042803107D20B0607D04900490AC0056B
:1050F0001043084360470130F8E7490A8902F5E7A1
:105100007047000068380020014B5B6A18470000B8
:10511000D8280020034BDB6FFC4618477CDFB951D1
:1051200000100000D8280020132310B512481C7866
:10513000FDF7CCFE0100012C0AD003DD80220F48D0
:1051400000F076F80E48FDF7B9FE0E4B186010BD62
:105150000A4C5422200000F06BF80B4B6365A365EA
:10516000E36523666366A366E36623676367A367F5
:10517000E3672362E361E5E753460000D828002097
:105180004C330000683800208D51001007B5604690
:1051900001880A0A0230DF2AFAD1C9B2820804D390
:1051A000028840880004104300E00068014A505023
:1051B000039007BDD8280020C30FDB0741000A0E6B
:1051C00007D0FF2A08D00909054A89181943400762
:1051D00070471900002070470249C918FAE700001B
:1051E000000000380000F07F10B5040006F024FD38
:1051F000002804D0034B04199C4200D810BD02487B
:10520000FCF7E0FB000004201CC7001010B506F0FE
:105210001DFD10BD01480421014B184790200020BE
:10522000DD2E0010014B1B68184700009020002065
:10523000014B5B68184700009020002010B5FFF775
:10524000D3FF10BD10B5FFF7E1FF10BD10B5FFF79C
:10525000DDFF10BD9A4200D2885470477047C046A7
:10526000F8B55746DE464E464546E0B599460A9B98
:1052700007009A460D9B884693460B9C9B073BD1A3
:105280000C9B9C423DD21E1B0B9415000C005E44EF
:105290002A004B46013521002020B847B542F7D1FE
:1052A000A0460B9C002C20D0454636195346321B95
:1052B000013C185D29004B46B847002CF6D12B0065
:1052C000350098460D9B9B070FD55B46EC1A0C9B4F
:1052D000A3420AD9464698462A004B463100202070
:1052E0000134B84701354445F6D32800F0BCBB462D
:1052F000B246A946A046F8BD16001500002CD3D131
:10530000E0E71600002CCFD11500EEE7F0B54F46D0
:105310004646D646C0B584B098460EAB1B78944638
:105320009946129B0D9C109F119E9A0725D4002E22
:1053300065D1BC4221D201221A409246202C00D1D4
:10534000E9E00C9A551E302202E0202C00D17BE0CF
:1053500001342A55A742F8D85246002A0DD0B4424B
:105360000BD20C9A551E3022202C02D171E0202C39
:105370002DD001342A55B442F9D1DA063CD55A056C
:105380002ED4002C28D10F9A102A00D1B6E0022A80
:1053900000D1BCE030220C9C227001244A46002A35
:1053A00065D15A0700D499E02B220C9D2A5501346F
:1053B00003930C9B62460093029643460194FFF7C9
:1053C0004FFF04B0E0BCBA46B146A846F0BD202469
:1053D000DA06EDD55A0503D4A74266D0B44264D0AC
:1053E0000F9A102A71D0022A57D0202CE0D0220028
:1053F000013430250C9FBD54202CD9D0CEE701229A
:1054000015001D40AA461A4236D04A46002A4AD103
:105410000C321A4247D1BC42A1D2202C91D1202E6D
:1054200017D82024DA06C3D55A051BD4202F01D063
:10543000202ED5D11F220F9D102D6FD0022DD8D137
:1054400062250C9FBD54D0E75246002A79D0202E09
:10545000BDD92024DA06ABD55A0503D4202FE9D0D4
:10546000202EE7D00F9A102AA2D12024A0E72D22C7
:105470000C9D2A5501349BE7BC4200D37DE7202CCC
:1054800000D05EE7DA06F0D55A05EED4202F62D0C0
:10549000202EEAD134001F22CDE7202C00D187E74F
:1054A00022000134CCE7013EB5E7621E012CC2D1D7
:1054B0000F9A102A00D06AE79A063BD558220C9C16
:1054C0002270283A6270022468E79A060ED4202CD3
:1054D000CBD078220C9D2A55013486E71A0700D4D8
:1054E00066E720220C9D2A55013461E7202CBCD0B0
:1054F00058250C9A12191570013476E79A0608D5CA
:1055000058220C9C227030226270022446E76032DE
:10551000F7E77822F5E7002A83D1B3E7A21E013C22
:105520009D0603D478250C9FBD5460E758250C9F39
:10553000BD545CE778220C9C2270483A62700224C9
:105540002CE7DA0600D433E75A058BD4202F00D09D
:1055500044E71F226FE73C001F226CE710B50028CC
:1055600000D110BD01F09CFBFBE7C0460B0010B55D
:10557000002802D049681B68984710BDF0B557460F
:105580004E464546DE46E0B599B08246894690468D
:105590000893229A239B10001900FEF71AF900289D
:1055A00000D0CDE0229823990122D94B5242FEF738
:1055B0000BF9002800D0C3E0229823990122D54B93
:1055C0005242FEF7EBF8002800D0B9E02298239968
:1055D00000220023FEF7E2F8002800D0F1E1229E2D
:1055E000239F8023269ADB001A400D92269A1A42A6
:1055F00001D1062324938023269A1B011A403B00E5
:1056000093460996334300D0B3E0002A00D0C2E1AC
:10561000002300240A930B94002304250993259B5F
:105620000024AB4200D95C1B0223269A1A400C923C
:10563000269A134203D06B426B415B421C40099B8C
:10564000002B07D00A9A0B9B30003900FEF73DF87B
:1056500006000F002298239900220023FEF79EF8EF
:10566000002803D0802109067B181F00269AAA4B28
:10567000009601971340089E0493249B0394029381
:10568000424633004946504600F0AAF90400002D76
:1056900067D02020269A4946024013005A425341BF
:1056A0005B42621C18400A92330022004530D0470A
:1056B000099A6F1ED317D4185C40D30F9B46002560
:1056C00001E0202D13D008AA94461F232000634434
:1056D0000A2101355E19FDF79FFD30313170200040
:1056E0000A21FDF799FD26000400092EE9D80523BB
:1056F0000693002304930A3303935B46089E0293A8
:1057000010AB0A9A0093494633005046059701951D
:10571000FFF7FCFD0C9A0400002A22D04246851AAD
:10572000259AAA421DD9B046574616002200434684
:10573000494620200135B8470134AE42F6D810E082
:10574000269B42460493259B49460393249B50463F
:105750000293229B239C00930194089B00F040F944
:105760000400200019B0F0BCBB46B246A946A046D2
:10577000F0BD6A4B78009C46400D6044FEF73AF855
:10578000674A684BFDF7BFFF674A684BFDF794FF18
:10579000674A3B031B0B1A4304000D0009981100D4
:1057A000644B0022FDF77FFF634A644BFDF7ABFFBC
:1057B00002000B0020002900FDF77EFFFEF732F803
:1057C0000990FEF717F85E4A5E4B04000D00FDF7E6
:1057D0009AFF00225C4BFDF76FFFFEF723F85B4A50
:1057E0005B4B29000C902000FDF78DFF04000C9806
:1057F0000D00FDF7FFFF574A574BFDF784FF0200EE
:105800000B0020002900FDF74EFF04000D000200F0
:105810000B000A940B95FDF776FF04000D000A9823
:105820000B9902000B00FDF747FF00220E900F912D
:105830004A4B20002900FDF748FF0022484BFDF7A6
:105840003BFF02000B0020002900FDF73EFF002275
:10585000444BFDF731FF02000B0020002900FDF74B
:1058600034FF0A9A0B9B0D0080210400C90500201B
:10587000FDF719FF02000B0020002900FDF71CFFB7
:1058800002000B000E980F99FDF71FFF0022284B16
:10589000FDF712FF344B0C9C9C4664442305002208
:1058A000FDF731FF04000D0002000B00300039004D
:1058B0000A940B95FDF772FF00285DD123002A00A2
:1058C000C625099963318D42AD4159466D42043573
:1058D000002900D1A3E6134363D030003900234AE6
:1058E000234BFDF769FF002807D000223000390064
:1058F000204BFDF753FF002853D1249B002B00D1F0
:105900008DE60D9B5A1E9341249AD31A249386E662
:10591000FFFFEF7FFFFFEFFFFFF7FFFF01FCFFFF40
:10592000FB799F501344D33FB3C8608B288AC63F8E
:105930000000F03F0000F83F61436F63A787D23F4C
:1059400071A379094F930A400000E03F1655B5BB9B
:10595000B16B0240EF39FAFE422EE63F00002C40C8
:105960000000244000001840FF0300002D431CEB02
:10597000E2361A3F80842E41099B0022013B0993A5
:105980002000164B2900FDF7A0FE0A0001000300CD
:105990000A910B9294E7002300240A930B940023AE
:1059A0000993249A099B9A4214DDD31A013B24934C
:1059B0008023269ADB001A430023002526920993B0
:1059C0002DE6802212069446229B1E00239B6344F0
:1059D0001F0006E600232493EAE7C04600002440A7
:1059E000F0B54546DE464E465746E0B595B08B4687
:1059F000904699461E9A1F9B0A9019001000209D00
:105A0000FDF7E7FE002800D0B0E11E981F990122A3
:105A1000C74B5242FDF7C2FE002800D037E11E9866
:105A20001F990122C34B5242FDF7CEFE002800D041
:105A3000A7E01E981F990022BF4BFDF7C5FE002866
:105A400000D088E01E981F990022BC4BFDF7A6FEEF
:105A5000002800D07FE01E981F9900220023FDF748
:105A60009DFE002800D0FAE000230B938023229CA7
:105A7000229ADB001C401A4200D102E1092D00D815
:105A80007CE106A98C462C00172200233021093C1A
:105A900062440133D154EF1A202B00D132E1A342EA
:105AA000F7D10022A44B069207931E981F99FDF789
:105AB000B9FE0500FDF79EFE02000B001E981F991F
:105AC000FDF7F1FD069A079BFDF71DFE0890099171
:105AD000FDF7CCFE0600FDF789FE02000B000898DA
