:020000041000EA
:1000000000B5324B212058609868022188439860DF
:10001000D860186158612E4B002199600221596106
:100020000121F02299502B49196001219960352056
:1000300000F044F80222904214D00621196600F024
:1000400034F8196E01211966002018661A6600F04E
:100050002CF8196E196E196E052000F02FF8012189
:100060000842F9D1002199601B49196000215960AB
:100070001A491B48016001219960EB211966A021F2
:10008000196600F012F800219960164914480160C1
:100090000121996001BC002800D000471248134993
:1000A000086003C880F30888084703B5996A0420EC
:1000B0000142FBD001200142F8D103BD02B5186610
:1000C0001866FFF7F2FF186E186E02BD00000240BE
:1000D000000000180000070000035F00212200005C
:1000E000F4000018222000A00001001008ED00E03C
:1000F00000000000000000000000000074B24E7A12
:1001000000200420F7010010CB010010CD010010E9
:10011000C9010010C9010010C9010010C901001077
:10012000C9010010C9010010C9010010CF01001061
:10013000C9010010C9010010D1010010D301001045
:10014000C1010010C1010010C1010010C101001067
:10015000C1010010C1010010C1010010C101001057
:10016000C1010010C1010010C1010010C101001047
:10017000C1010010C1010010C1010010C101001037
:10018000C1010010C1010010C1010010C101001027
:10019000C1010010C1010010C1010010C101001017
:1001A000C1010010C1010010C1010010C101001007
:1001B000C1010010C1010010C1010010C1010010F7
:1001C000EFF30580103800BE00BE00BE00BE00BECA
:1001D00000BE00BEF2EB8871D09E0010FC9E0010A5
:1001E0003802001090A31AE71E481F49086006C88D
:1001F00081F3088810471D480068002801D019487D
:10020000F3E70DA40ECC002902D000F012F8F9E7B4
:100210001749184A002000E001C19142FCD116495B
:100220008847164988471649884700BEFDE701C937
:1002300001C29A42FBD37047FC9E0010C000002010
:10024000F80C002034AB0010000004200000042053
:1002500034AB001000100420001004200000000047
:10026000704700000000000008ED00E0000000D032
:10027000F80C00209C1D0020C54F00102103001029
:10028000854F0010F8B5C0460448054B10B58342B1
:1002900003D0044B002B00D0984710BDF80C002071
:1002A000F80C00200000000006480749091A8B10CE
:1002B000C90FC91810B5491003D0044B002B00D04A
:1002C000984710BDF80C0020F80C0020000000003A
:1002D00010B5074C2378002B09D1FFF7D5FF054B4C
:1002E000002B02D0044800E000BF0123237010BDA2
:1002F000800E00200000000060880010054B10B543
:10030000002B03D00449054800E000BFFFF7CCFFF5
:1003100010BDC04600000000840E00206088001060
:1003200000B58FB004F06CFF192000F0A1FBD023C2
:100330001B06802292045A625A610C4804F067FF3F
:100340000B4804F064FF01A800F016F801A800F0C3
:100350001FF8084804F05BFF01A800F01DF801A891
:1003600000F010F800200FB000BDC04660880010FB
:10037000808800109C88001010B5040000F05CF824
:10038000200010BD10B5040000F0FFF8200010BDE3
:1003900010B504F035FF10BD10B500F0A1F810BD88
:1003A00010B501F02FFC002905D0FA22920000239D
:1003B00002F044F803E0FA21890002F001F810BDD0
:1003C00010B5FFF7EDFF184B1B68C01AFA235B004E
:1003D000984200D210BDFFF7E3FF134B1860134A99
:1003E000137801214B40DBB21370002B0ED0D022CA
:1003F0001206802189045161002B0DD0FFF7D0FF38
:1004000001000B4B180004F031FFE3E7D022120685
:10041000802189049161EFE7FFF7C2FF0100054BDE
:10042000180004F023FFD5E730100020911D0020B4
:10043000CC880010EC88001070B5040000F0A2F821
:10044000261D300000F0C2FA25000C350E49762238
:10045000280000F0ABF80D49300000F0BBFA0C4B5F
:1004600003220221280000F0FFF8002804D10948E7
:1004700004F0CDFE200070BD0021280000F07EFABF
:10048000054804F0C4FEF5E7E00C002088130000E6
:10049000801A06000C89001034890010D0B582B093
:1004A0000C3004000C4900F047FA03F0BFFB0600D3
:1004B0000F00200000F064F9084C03F0B7FB009037
:1004C000019132003B00200004F0D0FE0A2001F030
:1004D0009DFA02B0D0BDC04600507D445C8900103A
:1004E00070B504000BE00A21200000F04FF811E085
:1004F000280000F076FA12E0200000F04BF8FFF739
:100500005FFF2000FFF7CAFF251D280000F06FFAEB
:100510000028E8D1200000F03BF80A28E8D12000AC
:1005200000F036F80A28EAD88000154B1B589F4681
:10053000200000F030F8E2E7200000F02DF8DEE7C0
:10054000200000F02AF8DAE7200000F027F8D6E7CC
:10055000200000F024F8D2E7200000F021F8CEE7D8
:10056000200000F01EF8CAE7200000F01BF8C6E7E4
:10057000200000F018F8C2E7200000F015F8BEE7F0
:100580004496001000230360704770470160704775
:1005900000687047704770477047704770477047F2
:1005A00070477047704770477047000001600271E4
:1005B00000230362014B43627047C04600507D44F4
:1005C00030B58BB005000F226A448823137001797F
:1005D0000068873B009308F009F804AC2979286883
:1005E000002300931833220008F00CF86278237877
:1005F00012021343EB80E278A378120213432B819B
:1006000062792379120213436B81E279A379120292
:100610001343AB81627A237A12021343EB81E27AAD
:10062000A37A120213432B82627B237B12021343B1
:100630006B82E27BA37B12021343AB82627C237C3E
:1006400012021343EB82E27CA37C120213432B833E
:10065000627D237D120213436B83E27DA37D120230
:100660001343AB830BB030BD70B584B004000E00F3
:1006700015001900006807F08FFF0321300000F01B
:10068000C1F90321280000F0BDF90022012130004A
:1006900000F0D2F900220121280000F0CDF90E224D
:1006A0006A44D023137021792068CF3B009307F070
:1006B0009DFF0F256D4421792068002300930133AD
:1006C0002A0007F09FFF2B78582B02D0002004B09F
:1006D00070BD2000FFF774FFF4236A461373CD3B0F
:1006E00053732179206800230093023303AA07F093
:1006F0007DFF0120EBE7F0B587B006000F00150085
:100700000F226A44F723137001790068F63B0093C7
:1007100007F06CFF04AC3179306800230093063396
:10072000220007F06FFF23781B0362781201134346
:10073000A278120913433B60E3781B03227912016C
:1007400013436279120913432B6007B0F0BD30B533
:10075000CA10C4886300D21A0825435F5343DB12D2
:100760000911091B494309130A24025F4A439213E2
:100770009B1803629800C0188030001230BD000042
:1007800010B582B004006A4601A9FFF7B4FF0099D2
:100790002000FFF7DCFF03F027FA024903F0FFF91E
:1007A00002B010BD0000C842F0B5D6464F464646DE
:1007B000C0B584B080460391036A1C00DD17504A1F
:1007C00001235B42A4185D4122002B002000290078
:1007D00003F0BEF982468946434616229A5ED31735
:1007E00003F0B6F906000F0043461420185EC11747
:1007F00022002B0003F0ACF9C30B9C464B0461466E
:100800000B43420492197B4140461221415E00266F
:10081000CF00B6185F4100960197434610229A5EBA
:10082000D3175046494603F093F90B06060A1E43B8
:100830000F1243460E20185EC11722002B0003F052
:1008400087F9040D0B032343020392197B41002017
:10085000802109028018594143469A89002303F0F8
:1008600077F94D10CC172B00234347D080235B032F
:10087000039A9B1A5910D807009E019F801BB9410B
:10088000204A002303F064F92A00230001F0BEFD92
:1008900004000D0043461C20185EC117EB04660BD4
:1008A0001E436F1332003B0003F052F902000B00AD
:1008B0003000390003F04CF9CB01460E1E434F16B1
:1008C00043461A20185EC11722002B0003F040F99E
:1008D0004B03C20C1A43CB14A4197D41A4185D41EB
:1008E0002B06200A1843434618229A5E1301C018AB
:1008F00004B0E0BCBA46B146A846F0BD0020F7E718
:10090000000CFEFF350C000010B582B004006A46F2
:1009100001A9FFF7F0FE00992000FFF718FF0199E9
:100920002000FFF741FF03F059F9024903F037F9BE
:1009300002B010BD0000C84610B50C1CFFF7E4FF64
:10094000211C03F02CF903F071F980229205084B69
:1009500002F0AAFB02000B000020064901F06BFF29
:100960000022054B01F097FF02F054F810BDC0467D
:10097000C05BC83F0000F03F40A5E540F8B5060069
:100980000F1CFFF7C1FF03F051F904000D000D49E2
:10099000381C03F004F9011CFE20800503F0F5F873
:1009A00003F044F9C0221206074B02F07DFB02005F
:1009B0000B002000290001F050FF02F02BF87062BC
:1009C000F8BDC046002A2D471E05154000230360D0
:1009D0004360704710B504004160FFF7E1FC206000
:1009E00010BD10B50400FFF7DBFC206010BD10B592
:1009F0000400FFF7D5FC2368C31A60689842804161
:100A0000404210BD10B58300084A9A18146840226D
:100A1000544080322240064CA44663441A60C00011
:100A2000044B9C466044416010BDC04604C0014078
:100A300004D001400040014080000C4B9C466044C3
:100A400000290ED00823002A0DD004221343026887
:100A500053400C22134080225201944660440360AC
:100A600070470023EFE70022F0E7C04604C00140D2
:100A700010B501238340D0221206936293610521B1
:100A8000FFF7C0FF10BD000010B58023DB0518681C
:100A900003051B0D0B4A934207D10B4B03408022E9
:100AA0009201934207D1000F10BD084B084A094834
:100AB000132104F06BFA084B054A0648142104F090
:100AC00065FAC0462709000000F0FF0F7489001086
:100AD0007096001098890010DC8900100FB400B5E2
:100AE00083B0084804F093FB049B002B07D005A9B2
:100AF0000191180004F09AFB034804F088FB0120E0
:100B000004F03EFAF0890010008A0010EFF3108024
:100B100072B6034B1B68002BFBD0BFF35F8F70478F
:100B20002C0100D0BFF35F8F024B00221A6080F3CC
:100B3000108870472C0100D0F8B506000C00150095
:100B4000FFF7E4FFE308F718F15C072222400123D6
:100B500093400B4205D1DBB20B433B70FFF7E2FF42
:100B6000F8BD21002800FFF7B9FFF0B583B00600FB
:100B7000019114001F00FFF7C9FF00E00134BC42DF
:100B80000CD8E308F518F35C0721214001228A40C4
:100B90001A42F3D1D2B21A432A7001E0012464420E
:100BA000FFF7C0FF002C02DB200003B0F0BD019B6B
:100BB000002BF9D00898FFF791FF0000054A107844
:100BC000431CDBB21370172B02D9130010221A70CA
:100BD0007047C046000C002010B582B00100054CE3
:100BE000054B00931F2318222000FFF7BEFF02B021
:100BF00010BDC046DC160020048A0010002307E068
:100C0000054A9A189200BFF35F8F002111600133EB
:100C10001F2BF5D97047C04640000034074B9B6836
:100C2000103080001950BFF35F8FBFF35F8F044B0C
:100C30000021196082F310887047C04600ED00E083
:100C4000240100D00048704700E400E010B5FFF731
:100C5000F9FF002302E0034A04C00133072BFAD94D
:100C600010BDC0468080808010B50388DA0A1C2A37
:100C700005D15B055B1502335B00C01810BD034B4B
:100C8000034A8E210348490004F080F9208A0010AD
:100C9000D0960010388A001010B5091A0B1F0A4AA6
:100CA00088180A4A904208D8C90706D45B105B0529
:100CB0005B0D0748184380B210BD064B064A8721DA
:100CC0000648490004F062F9FC070000FE0F00002E
:100CD00000E0FFFF7C8A0010C4960010388A0010E4
:100CE00010B5091A04394A08090B08D14905490DFC
:100CF000064B0B430380064B1343438010BD054B4B
:100D0000054A8B210548490004F040F900F0FFFF37
:100D100000F8FFFFAC8A0010A0960010388A00107F
:100D200001238340034A10681840431E9841C0B213
:100D30007047C04600E100E0002A05D0044BC02205
:100D40005200995019607047014A8023D150FAE748
:100D500000E100E010B50A001F2303400121994083
:100D60004009FFF7E9FF10BD01238340014A1360EA
:100D70007047C04600E200E0024B9B6810308000E4
:100D8000C058704700ED00E010B5FFF7F5FF044BC9
:100D9000C31A00202F229A424041C0B210BDC04663
:100DA000040C002070B504000D00EFF3108672B63D
:100DB0000C4B1B68002BFBD0BFF35F8F2000FFF7AD
:100DC000DBFF094B984201D0A84205D1320029002F
:100DD0002000FFF723FF70BD044B054A0548ED21B5
:100DE00004F0D4F8240100D0C1010010BC8A001026
:100DF000F8960010388A0010F0B5DE4657464E4689
:100E00004546E0B589B0814601911500EFF3108B9E
:100E100072B66F4B1B68002BFBD0BFF35F8F6D4B1F
:100E200000269E57002E40DB7400A419A4006A48D7
:100E300024180622A256674B1A70684B9A684B46D4
:100E400010339B00D35898461B1A2F2B3BD9644B69
:100E5000984531D105AF634B3B80634973009A4697
:100E6000981980005C4B984640440230FFF714FF0D
:100E700078805E4BBB80FF23BB71FD71019B0793A4
:100E8000330053449B00434407CF07C301231C4353
:100E9000A0465A4641464846FFF7C0FE09B0F0BC9E
:100EA000BB46B246A946A046F0BD514B514ABE21B1
:100EB0005148490004F06AF8504B4E4A84214E488C
:100EC000FF3104F063F8012342469A439246101A18
:100ED0000C2101F075FA00290FD153460027DA7969
:100EE000AA4212D90621595600290DDB4A00521890
:100EF000920039491F008B18F1E7414B3D4ACA2146
:100F00003D48490004F042F81F00002F2ED005ABE9
:100F10003C4A1A80813A5A800623FB560293002BE2
:100F200017DA394805AB9A469880029A9A71DD71B2
:100F3000019A0792381D2100FFF7AEFEB880BE71FE
:100F4000254B7200921992009B18524613CA13C384
:100F50009FE7381DFFF788FE0100700080198000B0
:100F60001D4BC0180430FFF797FEDBE705AF1D4BA4
:100F70003B801D49730002939B199B00164A9046C3
:100F80001A0042440392901CFFF786FE7880039A71
:100F9000101D5146FFF780FEB8801C4B524641465B
:100FA000521A524153431B0DBB71FD71019A0792B6
:100FB000029B9B199B00434407CF07C3114B52462A
:100FC0001380813B538001231C43A04661E7C04648
:100FD000240100D0961D0020040C002000ED00E04C
:100FE000C101001000A1FFFF340C002001BDFFFF74
:100FF000F48A0010E0960010388A00101C8B001054
:10100000448B00100148000001BD0000AAAA0000A6
:10101000F0B5CE46474680B583B006000D00EFF32D
:10102000108872B64F4B1B68002BFBD0BFF35F8F4D
:101030004D4B9A6834001034A300D7584B4B9F4255
:1010400007D0AF4200D18AE00197494BFB1A2F2B02
:1010500009D9424639003000FFF7E0FD03B0C0BCBB
:10106000B946B046F0BD3000FFF75AFE8146002178
:101070003000FFF76FFEBFF35F8FEFF305810029AC
:1010800001D08C4211D10123019C9C430020A36814
:101090009D4211D00622A256002A0CDB53009B1859
:1010A0009B00334A2000D418F1E7324B324A3348D0
:1010B000334903F06BFF20009D4249D10625655757
:1010C000002D2BDB2A4B6A00521992009B189A685C
:1010D000A260DA79E2719B795BB2A371002B0FDA1F
:1010E0002848A080224B6A00521992009B18264A79
:1010F00011789971157049463000FFF72BFEA8E76B
:101100006800401980001A4BC0180430FFF7ACFD8E
:101110000100231D1800FFF7BFFDE2E7002912D1EF
:1011200000280ED0FF238371184B838016490B785B
:10113000A3710F4A164BA41A644163431B0D0B7035
:10114000D9E70A4FF2E71349201DFFF7C9FDD2E79F
:10115000114B094A91210948890003F017FF034FF9
:1011600077E7C046240100D000ED00E0C101001087
:10117000040C0020C88B0010B0960010388A0010B4
:101180000202000001BD0000961D002001BDFFFF0E
:10119000AAAA00003E0C0020FC8B0010F8B501222A
:1011A00002432C4BD31A2F2B28D8EFF30583002BA7
:1011B0002AD0EFF3108472B6274909680029FBD0C2
:1011C000BFF35F8F234D25490600761B764171439F
:1011D000090D4DB2224989689B00C958914219D026
:1011E0000021032930D81B4B4A00521892009B184B
:1011F0009B795BB2AB421DD00131F2E7194B1A4A21
:101200001A481B4903F0C2FE1A4B174A17481A49DD
:1012100003F0BCFE124A92681849D150184B1A7854
:1012200082711D70BFF35F8F0B4B00221A6084F335
:101230001088F8BD074B4A005618B6009E19FF27C4
:10124000B771104AB280E9E70F4B074A07480F49C8
:1012500003F09CFE040C0020240100D0AAAA000088
:1012600000ED00E0048C001084960010388A001015
:101270007F0200002C8C001082020000C1010010CF
:10128000961D002001BDFFFF388C00109302000066
:1012900010B582B00100074C074B009305230022D4
:1012A0002000FFF762FC002801DB1F23181A02B0A0
:1012B00010BDC0469A1D0020408C0010024B9C4679
:1012C00061448900016070474000003410B504009B
:1012D000FFF774FC01002000FFF7F0FFFF232371EC
:1012E000BFF35F8F10BD10B50400FFF767FC01006E
:1012F0002000FFF7E3FFFF23237100236371BFF397
:101300005F8F10BD10B50D4C09E00D4B0D4A0E4816
:101310001A2103F03BFE2000FFF7D8FF08340B4BE7
:101320009C4209D22368002BF5D0012BEDD120007F
:10133000FFF7D9FF0834F2E710BDC046F00C0020DB
:101340005C8C0010389700107C8C0010F80C00208A
:10135000034B9C46614489000160BFF35F8F704777
:101360004000003410B504000120FFF735FC0100F7
:101370002000FFF7EDFF10BD30B5846A151B0B1D73
:101380009B001B581B1B9D4204D3046A01238B4006
:10139000234202D1043189000A5030BD00040843C1
:1013A000704700000A4B1968EFF3108372B60A68A1
:1013B000002AFCD0BFF35F8F054A1268BFF35F8F2E
:1013C0000021116083F3108840BF00200021704786
:1013D0006C1D0020F0B5DE4657464E464546E0B54A
:1013E00083B0EFF3058303221A4011000192AC4B46
:1013F0009200D35898461B788B4207D10123019A5B
:1014000093400093A74B009A1A6019E1A64BA74A94
:10141000A748922103F0BAFD43465A694B465B0048
:101420004B44DB0093469B445B469E68DF68A148C3
:1014300000F0B6FB801BB941002900DA0AE1002F59
:1014400060DB5B461C699C4B9C4245D043460820B0
:10145000185E5B46598889B2FFF7A0FF5B46596961
:10146000A04704000D0023002B434BD0002D3DDA94
:1014700030003900001BA9415B469860D960002408
:101480001C5F002C00DAE5E043465A69924663008F
:101490001B19DB0053449A68DB6805000E00AD1A87
:1014A0009E41002E00DAD5E043461C8147460837AE
:1014B000BC46634600255D5F002D1DDB6C00641992
:1014C000E4005444A268E36806000F00B61A9F4186
:1014D000002F11DBA446ECE75B465C692369200022
:1014E000984700280ED065682468BCE7714800F072
:1014F00057FB00196941BFE75B461D804B466246BA
:101500001380A7E05B4600229B5E4246138112696E
:10151000EFF3108372B611680029FCD0BFF35F8F20
:1015200042460221525E59460A804246494651804F
:101530001269BFF35F8F0021116083F3108889E087
:1015400043461969EFF3108372B60A68002AFCD08B
:10155000BFF35F8F4246928812B2914601225242F7
:1015600041468A800A69BFF35F8F0021116083F3CF
:1015700010881AE09B465B4600229A5E002A0BDB2D
:1015800053009B18DB0053449868D96826002F004D
:10159000361A8F41002FEDDA4B4659460B806346D1
:1015A00000215B5E994663461A804B46002B57DB51
:1015B00043465A6992464B465B004B44DB009C46CF
:1015C000D44463469C68DD6846460836B346D2E795
:1015D0000023424693714146083143460820185E75
:1015E00011E001225242D317A260E3604346082271
:1015F0009B5E834206D00D80434608229B5E23807B
:10160000434618812800431C2ED043465A694300A4
:101610001B18DB00D418D55E63881BB2002BE0DBFF
:101620002100EFE722002B0001992248FFF7A4FEDA
:10163000204800F0B5FA241A8D41002D28DC25D071
:101640001C4B009A5A63434608229B5E9946002B26
:1016500000DBE1E643469B881BB2002B00DB6FE713
:1016600043469B79002BB3D1434608229A5E002A59
:101670000EDB4346596953009B18DB00CB189C686E
:10168000DD68631CCED16B1CD2D0CBE7002CD7D049
:1016900040BF03B0F0BCBB46B246A946A046F0BD71
:1016A000501B00203C700540108D00106497001006
:1016B0003C8D001000400540D513001070B50400AB
:1016C0000D0011000126AE4006622800FFF76AFBFC
:1016D00001212800FFF73EFB024B9C466444266034
:1016E00070BDC04638200000F8B5CE46474680B5EC
:1016F0000600894690461F00C160FFF75FFA154B50
:101700009C4660448000306143463370BBB27381B5
:10171000D022120612787270012252423281B280B7
:101720009B187380002406E0621E736965002D1902
:10173000ED005A530134BC42F6D3074B42469200A7
:10174000D650064A41464846FFF7B8FFC0BCB946E6
:10175000B046F8BD40000034501B0020D5130010E7
:1017600010B5064B1B69002B01D0044810BD044B7B
:10177000044A0548652103F009FCC0464C0C0020D2
:10178000788D00104C9700103C8D0010F8B50400C7
:101790000569EFF3108072B629680029FCD0BFF309
:1017A0005F8F0221665E656971008919C9006D1835
:1017B000002E02DB0027E95F61802169BFF35F8FA4
:1017C00000270F6080F31088002E2CDB069929611A
:1017D00007996961AA60EB606B8801335B04590C5F
:1017E000002B00D1012169803000FFF7D7FD21696E
:1017F000EFF3108372B60A68002AFCD0BFF35F8F44
:10180000A2882A80A6802269BFF35F8F0021116021
:1018100083F31088E368217801228A4003498C46CB
:1018200063441A60F8BD01204042FBE73C20000001
:1018300070B582B0060014001D0008AB1B78002BA9
:1018400007D100F0DFF922002B00121A8B41002B88
:101850000ADB079B0193069B009322002B003000BC
:10186000FFF794FF02B070BD0020FBE7F0B5C6465D
:1018700000B584B00500884616001F000AAB1C782E
:10188000FFF76EFF0294019700962A004346FFF788
:10189000CFFF04B080BCB846F0BD000030B50300F7
:1018A00008145A8990422EDA5C6942001218D2005C
:1018B000A2181D69EFF3108472B628680028FCD0C6
:1018C000BFF35F8F508880B20904090C884212D0A0
:1018D00000201A69BFF35F8F0021116084F3108824
:1018E000002811D0DA681B7801319940074B9C46DB
:1018F0006244116008E00649014389B25180012227
:101900009A710120E5E7002030BDC0463C20000070
:101910000080FFFF10B50400FFF722FF2100FFF752
:10192000BDFF10BD40787047F0B583B006000F00D2
:10193000EFF30583002B1AD106246442E517A4199E
:101940007D418D4202D803D1844201D90024002573
:1019500000F058F922002B00121A8B41002B0BDCEF
:1019600008D03000390000F05FF903B0F0BD1A482C
:10197000FFF7B4F8002AF4D0184A0023009320009F
:101980002900FFF773FF002818DAEAE7002300E0D8
:101990000023002BE5D1124B1968EFF3108372B6C8
:1019A0000A68002AFCD0BFF35F8F0D4A1268BFF3AC
:1019B0005F8F0021116083F3108820BF094B5B6AA1
:1019C0009D42E5D80749896AA14203D29D42DDD0F4
:1019D0000123DEE70123DCE79C8D0010A513001036
:1019E0006C1D00200040054070B504000D0000F0A3
:1019F00009F900196941002902DBFFF795FF70BD65
:101A0000012040420049F8E7FFFFFF7F10B5FA22AE
:101A100092000023002102F09BF8FFF7E5FF10BDC4
:101A2000F0B5CE46474680B583B005000C00EFF315
:101A30000583002B15D0434B5B6A8B4209D3414A87
:101A4000926A82420BD28B4201D0012002E0002038
:101A500000E0002003B0C0BCB946B046F0BD012094
:101A6000F8E7FFF77DFEC3689946037898462E0095
:101A70002700484600F094F802000B00B61A9F4178
:101A8000434604339B004A469B581B1A0022BA4225
:101A90000FDC0CD020BF2B4B5B6A9C4220D8294A1C
:101AA000926AAA421ED29C4218D00120D2E7B342C9
:101AB000F0D9254A0023009328002100FFF7D6FE25
:101AC000002811DD1F4B5B6A9C4221D81D4A926A97
:101AD000AA422FD29C4219D001231AE00020B9E774
:101AE0000020B7E70120B5E7164B5B6A9C4209D896
:101AF000144A926AAA4207D29C4201D00120A9E767
:101B00000020A7E70020A5E70120A3E7002300E0CD
:101B10000023002B00D120BFFFF7FCFE094B5B6ABE
:101B20009C420BD8074A926AAA4209D29C4203D02F
:101B300001208FE70123ECE700208BE7002089E7F5
:101B4000012087E700400540A513001000487047BA
:101B50000040054010B50B4B1B69002B04D00A4810
:101B60000A21FFF7ABFB10BDFFF7F0FF04000321D4
:101B700000F00CF80348102303222100FFF7B4FD06
:101B8000EDE7C0464C0C00206C1D002010B5024A49
:101B90000248FEF7D1FF10BDEC8D0010E0160020CA
:101BA0000200436A906A1900536A9942FAD1704759
:101BB000416A00E0416A9942FCD300E0416A9942DF
:101BC00002D1816A9142F9D37047F0B5C64600B59B
:101BD000804614001D00FFF7E3FF06000F002200FF
:101BE0002B0092197B41994202D804D1904202D92C
:101BF00001225242D3174046FFF7DAFF80BCB846B5
:101C0000F0BD000010B50248FFF7CAFF10BDC04686
:101C10000040054010B502000B000248FFF7D5FF59
:101C200010BDC0460040054010B502000B00024840
:101C3000FFF7BEFF10BDC04600400540074B98426D
:101C40000AD0162301229A40054B1A60054B1B68E7
:101C500011009943FAD170471723F3E7008003403E
:101C600000F0004008C0004070B5046BE30701D4E9
:101C7000200070BD0B4BC3180B4A1A60456A836A7B
:101C8000AD01ED18AD02062000F016F9074900F08D
:101C900097FB0100280000F093FB0021FFF7BAFF3B
:101CA000E6E7C04630300000010300004E0E0000A1
:101CB00070B504000E001500FFF7D6FFE36A5E4022
:101CC0003540024BE3181D60206370BD2C100000EE
:101CD00070B505000C00062000F0EEF8C0002100F1
:101CE00000F06EFB0130C60907D00E4B9E4215D89E
:101CF000400834003F26064000E001246C62AE62DA
:101D0000002200212800FFF7D3FF062000F0D4F8BE
:101D10008000A101891900F053FB70BD0026024C20
:101D2000ECE7C046FEFF0000FFFF0000002909D0DD
:101D30000A22064B9C46604443425841044B4000F3
:101D4000C252704780225200F3E7C0460080FCBFB9
:101D5000781D002070B504000D00062000F0ACF8DE
:101D600000281ED0104B9C421CD016220123934009
:101D70000E4A13602000FFF761FF00212000FFF7EB
:101D8000D5FF29002000FFF7A3FFE26A70235A4025
:101D90000E331340064AA2181360064B2363032335
:101DA000A36470BD1722E1E70080034000E000401B
:101DB0002C10000001030000F8B5D646474680B558
:101DC00006000D001700984644002418A400294B73
:101DD0009C4664446368089A934200D26260331F51
:101DE000DBB29A46012B2ED980221201C0239B011F
:101DF000E3181A60204BB200D158002907D0586967
:101E000000F0DEFA013043001B18033BFDD27F01D6
:101E100023685F40E0233B4080225201A2181360F8
:101E20005346012B1AD980239B01E318802212010B
:101E30001A60089B6360104BB6004246F250C0BC6B
:101E4000BA46B046F8BD012DCED10322C0239B0176
:101E5000E3181A60A368DB07FCD5D8E7216869405E
:101E600003230B401360A3680122AA401A42FAD050
:101E7000D9E7C04600800040E4160020F0B583B0EA
:101E800005000E0017001800089900F099FA0300E9
:101E9000089A140200943A0031002800FFF78CFFE2
:101EA00003B0F0BD10B582B0802464000094FFF749
:101EB00083FF02B010BD0000014B8000C058704786
:101EC000E4160020F0B5C64600B504000E00170069
:101ED0001D00374800F074FA8046364BFA18364B2E
:101EE0009A4239D80100380000F06AFA0200103A2C
:101EF00098235B009A4235D86B1E062B38D8069B78
:101F0000013B062B34D83F09474537D32D04069BA8
:101F10001B031D432368002B36DB284B9C4244D017
:101F20000C2201239340264A1360264A1360264A56
:101F30001268190091430A1EF9D12660A060234B54
:101F4000E31821321A602268002AFCDAE5600822D0
:101F50001A6080BCB846F0BD1D4B1E4A1E481121B8
:101F600003F014F81D4B1B4A1B48192103F00EF80F
:101F70001B4B184A18481C2103F008F8194B154A46
:101F80001548232103F002F822683F231340B3428F
:101F9000C3D1A3681B051B0D8342BED1E368EE22AB
:101FA000D2021340AB42B8D1D3E70D22B9E7C04605
:101FB000001BB70080E84BD380F8A93200C0024074
:101FC00000E0004000F0004008C000400430000085
:101FD000108E00107C970010608E0010A48E0010F0
:101FE000C08E00100C8F0010024B1A68024B5A6012
:101FF0007047C046401B00200080054010B5174BBD
:102000008022D2051A60164B164A1A6000290AD09F
:10201000154BE022D2041A60002809D1124B80220D
:1020200012061A6010BD0D4BE022D2041A60F3E7CD
:1020300043011B1A9B00181800010C4B18608023E9
:102040005B04984202D3094B094A1A60FFF7CCFFA0
:10205000054B8022D2051A60E4E7C04600B0054077
:1020600008200140FCFF010000A00540401B0020AB
:10207000FFFFFF0010B5030010000C4A8024E405A8
:102080001460002B0DD001221343094A094CD4617E
:10209000094C5C401462516293620021FFF7AEFF6D
:1020A00010BD034B0022DA61F7E7C04600B00540DF
:1020B00000800540D3C007B02D3FF84F80239B0020
:1020C0000B43014AD36270470080054010B5010000
:1020D00018231B8814221088984710BD10B50100E2
:1020E00018231B8816221088984710BDF0B5C646E5
:1020F00000B507000E0000250123984600E00135D9
:10210000B5420AD2AC003C192068FFF7DFFF20601F
:102110000028F4D100239846F1E7404680BCB84639
:10212000F0BD000070B504000D000648FFF7CEFFBB
:102130000300002C03DB0120A04029009847002069
:10214000FBE7C04655420000074BAA2212011A6065
:102150008D225200DA60054B054A1A60024B5B681B
:10216000002BFBDA7047C04600400240006002408E
:1021700000B0FA0010B5040001E008CC9847024B0B
:102180009C42FAD310BDC04654880010704700002E
:1021900010B50248FFF7EEFF10BDC04618880010CA
:1021A000054B064A1A60064B064A1A60064B1A6827
:1021B000044B9343FAD1704700E00040BFCDFBFED3
:1021C00000F00040FE7F3C0008C00040044BDB6C88
:1021D000002B03D1034B8022D2021A607047C04605
:1021E000000011504C201150044B054A1A60054B59
:1021F0001B68DB43DB01FAD17047C04600F00040AA
:10220000FFFFFF0108C00040034B40229A675A6756
:102210001A67DA667047C04600F0014010B5FEF755
:10222000EDFC10BD10B50C4A0C4BD21A92101400E4
:10223000302A00D9302292000948084901F0BEFD39
:1022400004E0084A064BA100CA5001342F2CF8D9EB
:10225000034B054A936010BDC0010010000100103F
:1022600000000020C101001000ED00E070B5042066
:10227000FFF722FE064900F0A3F805000024002C19
:1022800000DD70BDE0B22900FFF718FF0134F6E76A
:1022900040420F0030B583B0274B00229A67FFF70A
:1022A00053FF264B01221A60234B5B6C012BFBD1A1
:1022B000234B03221A60204B9B6B012BFBD1013374
:1022C000009304331F4A01211F48FFF7FBFD05233C
:1022D00000931E4A01211E48FFF7F4FD1D4B00220A
:1022E00002210420FFF7DEFD1B4D2B0000220121FF
:1022F0000520FFF7D7FD194C2300002200210720FD
:10230000FFF7D0FD2300002200210820FFF7CAFDBF
:102310008023DB0000932300002200210920FFF727
:10232000ADFD2B00002200210620FFF7BBFDFFF7CB
:102330009DFF03B030BDC046008000403CB000406F
:1023400030B00040002F685900800240008C864762
:1023500000C00240001BB70040597307006CDC024C
:1023600001480421014B1847700C0020ED2000109B
:10237000124A936F9B0815D29066D166002905D04A
:10238000FFE7FFE7FFE7516F106F704704B580214B
:102390000906C2175140002800D0C84306F0FCF9D6
:1023A000002104BDF0B5146E556E576F166FFFF720
:1023B000E3FF1466556657671667F0BD000000D04E
:1023C000114A936F9B0813D210665166002905D0FD
:1023D000FFE7FFE7FFE7516F106F704704B5002874
:1023E00001D00020C04306F0D7F9002104BDC0464B
:1023F000F0B5146E556E576F166FFFF7E5FF146654
:10240000556657671667F0BD000000D094464A4AEB
:10241000926F9208624601D228E0C046F0B5464E5F
:10242000346E756E776F366F00F020F89446424A2E
:1024300014665566576716676246F0BD94463E4A75
:10244000926F9208624601D254E0C046F0B53A4E0F
:10245000346E756E776F366F00F04CF89446364ADE
:1024600014665566576716676246F0BD002B24DB7D
:1024700011D000293EDA00B5C943404200D10131F4
:1024800000F038F8C943404200D10131DB435242E9
:1024900000D1013300BD002AEBD1002801D1002971
:1024A00005D00020C90FC90701D1C043410800B5BC
:1024B00006F05AF90022002300BD00B500290ADB0E
:1024C000DB43524200D1013300F014F8C9434042CB
:1024D00000D1013100BDC943404200D10131DB438D
:1024E000524200D1013300F005F8DB43524200D1E3
:1024F000013300BD002923D1002B18D1002A0CD0B4
:10250000BC460D4F38667A6600210023FFE7FFE7DF
:10251000FFE77A6F386F67467047002801D0074899
:10252000010000B506F020F90022002300BD0200E2
:102530000B00002000217047000000D0FFFFFFFFCC
:10254000002B00D0BFE0130C28D1002AE7D080B4C4
:10255000114F39667A66FFE7FFE730B4040C7B6FF2
:10256000396F1B0423433B667A66FFE7FFE7FFE70B
:10257000C04684B27B6F3D6F1B0423433B667A6683
:10258000FFE7FFE7C04600232C042D0C7A6F386F5D
:1025900000196941B0BC7047000000D0F0B5944606
:1025A0000025140E01D112020835140F01D11201B9
:1025B0000435940F01D192000235D40F01D152009D
:1025C0000135D40B0134254F7C66254C3C660E0C3E
:1025D00093B2FFE7FFE7FFE73C6F6643360C7703F4
:1025E000BE467343DF0B5B04C01AB941130C73433F
:1025F000DB18C91ACE086643360CB64493B273434F
:102600001F0F1B01C01AB941130C73431F0B1B058D
:10261000C01AB941860D8F023E436643360C092D20
:1026200024DB520A7243801A7703460A6643360C4B
:1026300016235B1BDE40DF40BF1964466643821BE6
:102640007046043506330100D940A840C01900D3B4
:102650000131A24206D20023F0BD0000000000D0EC
:10266000FFFFFFFF121B0130F3D3F1E709277F1BA8
:10267000FE406446A2B27243801A00D20139220C95
:102680007243130C1204821A99410B0070460435F0
:1026900013370100F940A840801900D30131002B05
:1026A00002D1A2420AD2F0BD013000D30131121B87
:1026B000FAD2013BF8D1A24200D2F0BD013000D3E2
:1026C0000131121BF7E7F0B51C0C00D080E00CB410
:1026D00000251C0A04D11B02160E334312020835D2
:1026E0001C0B04D11B01160F3343120104359C0B44
:1026F00004D19B00960F334392000235DC0B02D1CC
:1027000092185B4101351C00971864410134464F13
:102710007C66464C3C660E0CFFE7FFE7FFE7C046D1
:102720003C6F6643360C7703BE4697B27743C01BB7
:1027300000D20139C01B00D201399FB27743C91BB7
:10274000C91B170C77437E04FF0B801BB941CE08D1
:102750006643360C0C2D33DBB644120B1F053A438F
:102760001B0B97B27743C01B00D201399FB277434E
:10277000C91B170C77433E043F0C801BB941860DE3
:102780008F023E43664329277F1BFE400C3D774660
:10279000AF40BF1930BCA2B2ABB272437343801AD0
:1027A0009941220C7243130C1204801A99410200C1
:1027B0000B000137001BA941F9D2781E0021F0BDA2
:1027C0000C277F1BFE4077467F0BAF40FF19E0E7E9
:1027D00000245D1C07D0144F7D663966FFE7FFE7D4
:1027E000FFE7FFE73C6F95B29EB265436643401B2F
:1027F000B141150C1E0C6543664336042F0C3E4355
:102800002D04401BB141994204D202000B0020006C
:102810000021F0BD01D19042F7D3801A99410134D3
:102820009942F2D3F6E70000000000D0FFFFFFFF5F
:1028300048404140484018B41B4B5B68FC4601933C
:1028400008BD04DF4B32001018B4174B1B68FC4660
:10285000019308BD00DF553200109446134A926F71
:10286000920809D2624618B40F4BDB68FC4601930C
:1028700008BD0CDF0D3500100C4AF0B5146E556E16
:10288000576F166F6246FFF7EEFF084A14665566EB
:1028900057671667F0BD18B4034B9B68FC4601935D
:1028A00008BD08DFB1330010681B0020000000D015
:1028B000FFB550404240504059404B40594000E025
:1028C000FFB5154F4C00640D03D0BC4204D10C037E
:1028D00014D80020090D09055C00640D03D0BC422A
:1028E00004D11C030AD800221B0D1B0501264B40F6
:1028F00009D44B4003D58B4200D18242FFBD99429F
:10290000FCD19042FFBD0B43DB1803431343F5D0CA
:10291000C9434918FFBD0000FF07000000B5FFF7DD
:10292000CFFF01D0002000BD012000BD00B5FFF7A2
:10293000C7FF804100BDC04600B5FFF7C1FF01D908
:10294000002000BD012000BD00B5FFF7B1FF01D997
:10295000002000BD012000BD00B5FFF7A9FF8041A8
:1029600000BD012040054A00121804D85A00121870
:1029700001D8002070470120704700000021002886
:1029800005D17047C1174840401AFAD0C90713B59E
:10299000064B1B6898470CBC441CA2401005120B48
:1029A0000349091B09051943114310BD681C002088
:1029B0001F04000010B54C00620D8023D218DB000C
:1029C000D21A5B057E2A10DD9E3A13DACC17090372
:1029D000490819435242D140640001341532202A7B
:1029E00005DAD0400843604310BD002010BD084602
:1029F000604310BDC80FC018013810BD18B4044B97
:102A00005B6AFC46019308BD24DFBD360010000060
:102A1000681B002018B4044BDB6FFC46019308BD13
:102A20007CDF3D3700100000681B002018B4044B09
:102A3000DB6CFC46019308BD4CDFE9380010000058
:102A4000681B002018B4044B1B6DFC46019308BDA5
:102A500050DF853900100000681B002070B513237B
:102A60001C78012C12D0012C12DC214B214A9364DA
:102A70002148FFF72BFB214B186070BD1C491D4AF4
:102A80009800815001331F2BF8D9ECE70023FAE7B7
:102A90001B48FFF723FB05001A48FFF71FFB02380E
:102AA00003789B007F2B09DD12488022290001F06A
:102AB00085F9022C08D0022CDADCD6E7124B134A37
:102AC0001348332102F062FA124B1A88B5231B0215
:102AD0009A4209D1104B1A88104B9A4204D1104BDC
:102AE0001A88104B9A42E6D00020FDF7F7FFC04647
:102AF00011320010681B00204C330000681C0020BD
:102B00005344000053460000288F0010889700109F
:102B10006C8F001054380000D8380000494600007F
:102B20009C3800005946000030B50B0D5B055C0D6C
:102B3000002B14D00D4B9C4211D01419002C09DD30
:102B40000B4B9C420CDDC90FC90700240948084300
:102B5000050002E00024C90FCD072000290030BD88
:102B60000024150524184D41F7E7C046FF07000073
:102B7000FE0700000000F07F30B50B0D5B055A0D1D
:102B8000002B1FD0134BD2181ED434239B1A002BBA
:102B90001CDD1C00203C0CD401225242A240012426
:102BA00064429C400300A34391430B4310D1012096
:102BB00009E02024E41A012252421500E5409A401F
:102BC0002A43ECE7012030BD0020FCE70120FAE7B2
:102BD0000020F8E701FCFFFF30B50B0D5B055B0D36
:102BE0001B4A9B182CD43422D31A2BD41C00203C13
:102BF00016D4353AA240012464429C400500A54306
:102C00002C000D0095432A0022431DD1342B1DD0EA
:102C10001A00203A0DD40800D0400123184030BDDE
:102C20002024E41A012252421500E5409A402A432A
:102C3000E1E72022D21A0C009440D8402043ECE770
:102C40000020ECE70020EAE70020E8E70120E6E7C3
:102C500001FCFFFF02000B00090D4905480D00298A
:102C600007D00549884205D01803000B10434342A2
:102C7000584170470020FCE7FF07000070B50400D2
:102C80000D001600012A0ED0D20F92195210FFF734
:102C9000F5FF02000B00FFF7FEFDF60703D522004B
:102CA0002B00FFF7F8FD70BD10B5141E03DB2200EA
:102CB000FFF7E4FF10BD02000B0000200249FFF700
:102CC000CCFD6442F3E7C0460000F03FF0B5D646C5
:102CD0004F464646C0B588B014001D000E0D76055F
:102CE000760D674BF718674A921BFFF71DFFFFF73A
:102CF000A9FE654A654BFFF7B0FD0022644B0090CA
:102D00000191FFF729FE002809D00022614B0098AD
:102D10000199FFF790FD009001915F4BF718002F8C
:102D200011D000225D4B20002900FFF70DFE002886
:102D300015D0002F10DB0020594908B0E0BCBA467E
:102D4000B146A846F0BD22002B0000980199FFF77C
:102D5000A2FD00F065F9F0E700200021EDE7002278
:102D6000504B20002900FFF7E7FD002807D0002F77
:102D700002DB00200021E0E700204949DDE72000D8
:102D8000290000F001F90490059102000B002000D9
:102D90002900FFF750FD03000C001A220293039450
:102DA00000F0EEF800F0F0F81A225242FFF7BCFEF5
:102DB00004000D0002000B0002980399FFF73BFD91
:102DC0000690079104980599FFF7F4FD81460100EC
:102DD00079438A463800FFF7D5FD22002B00049086
:102DE0000591FFF758FD06000F0000F0CDF8040034
:102DF0000D00FFF7DFFD8046D04422002B0030009D
:102E00003900FFF718FD04000D00069A079B04988F
:102E10000599FFF740FD02000B0020002900FFF795
:102E200013FD049005914846FFF7ACFD009A019B05
:102E3000FFF731FD04000D0000F0A6F806000F00BA
:102E4000FFF7B8FD804432003B0020002900FFF767
:102E5000F2FC049A059BFFF7F7FC04000D00029AB0
:102E6000039B00980199FFF716FD22002B00FFF746
:102E7000EBFC00F0D5F84246FFF756FE5DE7C04692
:102E800001FCFFFFFF030000EF39FAFE422EE63F90
:102E90000000E03F0000F03F02FCFFFF0000B040F8
:102EA0000000F07F0000B0C0F0B5C64600B582B0AB
:102EB00004000D0016001F00019000291DDA10000B
:102EC0001900FFF789FE00280ED0200080231B0682
:102ED000E91832003B00FFF7E7FF802424060919B8
:102EE00002B080BCB846F0BD019880231B06E918EB
:102EF00032003B00FFF7D8FFF2E710001900FFF7A0
:102F000059FD804620002900FFF7A4FE00280CD1BF
:102F10004346002B28D02033402B1FD932003B00E2
:102F200020002900FFF7D2FEDAE72A0D5205520DE4
:102F30000F4B9C46624480231B01984505DA0D4BDC
:102F4000984504DA0B4B984601E00B4B98464346F4
:102F50005A4300200949FFF7E7FDC1E74246200038
:102F60002900FFF7A1FEBBE700200449B8E7C046EF
:102F700001FCFFFF00F8FFFFFF0700000000F03F2B
:102F800010B5FFF7D1FD10BD70B50B0D5B055B0DE6
:102F9000214A944663445A1C24DB5A1C28D034220C
:102FA000D21A002A1DDD3324E41A2500203D26D440
:102FB0000126AE4033000125A5402A0012184B41DE
:102FC0002500203D21D40226AE4031000225A54037
:102FD0002800002544428D411600264030002B4039
:102FE000190070BD0022C90FCB0710001900F8E7C7
:102FF000CB0FDB070020094A1A431100F1E7202517
:103000002D1B0126EE403300D5E720252D1B02267F
:10301000EE403100DAE7C04601FCFFFF0000F03F60
:1030200070B504000D000A0D194B9A4229D00022F8
:10303000184BFFF781FC002826D10022164B2000F8
:103040002900FFF781FC002802D0002013491DE071
:1030500020002900FFF798FFFFF7ACFC0600FFF700
:1030600091FC02000B0020002900FFF7E4FB0C4A52
:103070000C4BFFF710FCFFF7D9FC3200FFF754FDB3
:1030800004E00020002101E00020002170BDC046C6
:10309000FF0F00000000B0C00000B0400000F07F53
:1030A000EF39FAFE422EE63FF8B5CE46474680B5E8
:1030B00006000F0014001D0000224E4BFFF72EFCEF
:1030C000002821D12B0D98465B055A0D9146002B07
:1030D0001AD00022484B30003900FFF71FFC0028AF
:1030E00002D0464B99456DD03A0D5305590D002B32
:1030F0001DD1002D0EDB20002900FFF76DFD0028FB
:1031000063D03000390001E000203A49C0BCB94624
:10311000B046F8BD20002900FFF75EFD002857D01B
:10312000FB0FDB070020364A1A431100EEE7334B52
:103130009A4213D0334B9A4215D0304B984527D042
:10314000304B98452AD020002900FFF715FD0028B4
:103150002AD1002F2FDA00202949D7E7002D3ADAAB
:1031600000200021D2E7002D08DB20002900FFF716
:1031700033FD002832D000202349C7E72000290072
:10318000FFF72AFD00282CD0002080210906BDE78A
:103190001E4B994228DC00200021B7E71B4B9942C7
:1031A00025DC00201649B1E722002B003000390051
:1031B000FFF77AFEAAE722002B0030003900FFF764
:1031C00085FDA3E700200B49A0E7002000219DE733
:1031D00000200B499AE70020094997E70020084999
:1031E00094E70020002191E7002005498EE70020A8
:1031F00000218BE70000F03F0000F0BFFF07000058
:103200000000F07FFF0F00000000F0FFFE03000051
:1032100007B56046002800D100BE01880A0A0230C6
:10322000DF2AFAD1C9B2820804D302884088000498
:10323000104300E00068024A5050039007BD0000B0
:10324000681B00200FB403BC0CBCF0B50124E407DC
:10325000634000E0F0B50C0DCF0F661E3605891BEC
:10326000640503D3C943404200D30131640D03D048
:10327000661CF60A07D0E41B00207F00791C890732
:103280008912803C24031D0DDF0F6E1E36059B1B2B
:103290006D0503D3DB43524200D301336D0D03D0E0
:1032A0006E1CF60A07D0ED1B00227F007B1C9B07DB
:1032B0009B12803D2D032F1B661B58D4A446202E45
:1032C00046DA20371400BC401D00BD40F2403341B7
:1032D0002A4380185941CB0F05D0C943C04300226F
:1032E00064425041514162464D0D28D10D0D07D128
:1032F00000281FD0241940414941013A0D0DF9D051
:10330000640006D3013000D30131002C01D1400804
:103310004000013A0BD4941CE40A04D11205114474
:10332000DB071944F0BDD907204B194300E0D9074A
:103330000020F0BD0029DDD1002CDBD1F0BD013231
:10334000C6074008CD0728434908002EE1D0D9E739
:103350003C2E29DA203E40371400BC4000D0012426
:10336000F24014431A00BB401C43D317ACE7AC46F1
:10337000202F08DA20360400B4400D00B540F84094
:1033800039412843A5E73C2F0CDA203F40360400A2
:10339000B44000D00124F84004430800B1400C437D
:1033A000C117EAE710001900002494E70000F07F3D
:1033B000F0B50C0D661E3605891BE60A6405640D22
:1033C00002D0651CED0A04D0002001210905803CD3
:1033D0002403A4461C0D671E3F05DB1BE70A64059A
:1033E000640D02D0651CED0A04D0002201231B05E8
:1033F000803C24037740644497B484B296B274430B
:10340000070C7E43150C6F4380B26843361802D315
:10341000012000043F183004350C00197D4184461A
:1034200088B29AB250430C0C62431F0C7C438EB29C
:103430007E43921902D301263604A4191604170CF0
:103440003618674101BC81B29AB25143040C624301
:103450001B0C5C4380B25843121802D301200004B5
:1034600024181004130C401863412D185E410020ED
:10347000474106BC88B293B258430C0C6343120C0C
:10348000544389B251435B1802D3012109046418E3
:1034900019041A0C091862416D1856410020474161
:1034A00018BCF902720D1143F0026A0D1043ED02CF
:1034B0000A0D03D16D1940414941013B124E9B1B3E
:1034C0007600B3420ED26D0007D301300026714161
:1034D0006646354301D1400840001B05C918E40782
:1034E0002144F0BD0BDA013306D1013004D10131A2
:1034F0004F0D01D04908F2E7E1070020F0BD013689
:1035000031050020EBE70000FF030000F0B51C0DC3
:10351000671E3F05DB1BE70A6405640D02D0661CCD
:10352000F60A04D0002201231B05803C2403D02589
:103530002D060026F6432E661E096E66CE0FF6197E
:10354000B44649004F0D02D07E1CF60A03D000207D
:103550000021403F3F033E1BB600B444013F7F05BE
:10356000C91B49082E6F013676089C02950D25432C
:103570007543ED137543AD1301356D10F603761BDE
:103580000CB4CC02450D2C43A2B2B3B25A43270C63
:103590007B43350C6F43A4B26C431B1902D3012447
:1035A00024043F191C041D0CA4187D4124196D41ED
:1035B000009A91B2ACB26143170C7C432B0C5F4371
:1035C00092B25A43A41802D301221204BF18220453
:1035D000230C52187B41019C6C431B19520ED901DC
:1035E0000A434401A01A81B2B2B2514303145A43B0
:1035F000360C734387B27743D617D21900277E4122
:1036000036049B191704160C7F185E417316ED18CB
:10361000F301002680337541A90F06D16400690AC1
:10362000E8055B0A184309D22FE004229444803352
:103630007541A90AA8059B0A184326D34041494170
:103640002404009A019B0D005543641B4343E41A74
:1036500095B286B27543170C7E43030C5F4392B25A
:103660005A43B61802D301221204BF183204330C95
:1036700052197B4152429C41002C02D4002201305D
:1036800051414008CA071043490802B06246D707B3
:103690009210084BD218084B9A4203D2120589188F
:1036A000C919F0BD0020002A01DC3900F0BD01334A
:1036B0001905F5E7FD030000FE070000002200B534
:1036C000203200F004F8080000BD000000220B15B5
:1036D0000AD410B5944600F0A7F81414013400DAA7
:1036E0000021CB17144C2047002000217047624472
:1036F000343A0CD40C2A07DA04009140904052422C
:103700002032D440214310BDD843D94310BD2032CC
:1037100007D40C469440524220321141D0402043FD
:1037200010BD0800C917203203D452422032104184
:1037300010BD1800190010BDEF3600104A00520DE0
:10374000144BD21A13DDFF2A1EDAD205CB0FDB078A
:103750001A43C300400F0903490A084310435B00A2
:1037600001D301D0013070474308FBD2704702D02B
:10377000C80FC00770470A0312130132F8D1420F75
:10378000072AF5D1012200E0FF22C80F00028018AD
:10379000C00570478003000000210A00002104E0FA
:1037A00000210A00C11704E00022002306E0C04601
:1037B0000022CB1758405940C01A994130B5184CD7
:1037C000A21A002903D1010010D00020203A4C1584
:1037D00012D104D2013A001849414C0DFAD3114CD0
:1037E000A24204D212058918DB07C91830BDD243A2
:1037F000520D00200021F5E703D4013A0018494199
:10380000FBD50B324405C00A4D052843C90A6400A4
:1038100003D0002460416141E1E7E0D34408F8E7C8
:1038200032040000FE0700000A0DCC0F531E1B05DA
:10383000C91A520503D3C943404200D30131520D86
:1038400003D0531CDB0A07D0121B00206400611C4C
:1038500089078912803A1203014BD21A704700007F
:10386000FF030000023225D40C2A1CDA1125AD1A00
:103870000B002B41083207350600EE409040914086
:103880003143F0CC63431A1500235A415543564344
:103890005743BF02F412760576196741ED177F1979
:1038A000801BB94170470C220020C9174900013123
:1038B0000905DBE70902030E1943000253422032D7
:1038C00008D40C0019419440D840204300225041B4
:1038D000514170470800C917203B2032F1D5002024
:1038E0000021002270470000F0B5FFF79DFF54A4AF
:1038F000FFF7B8FF002904DA204C214D0019694177
:10390000013A04B4012752A6002201239B0730CEBE
:10391000B446001BA9410BD47E4220361D003D4118
:103920001C00B4401600FE40344362416B4101E08C
:103930000019694166460137212FE8D185B29EB250
:10394000754307147E43190C4F4384B24C43F1175F
:1039500036190024614109047F183404310C6419BC
:103960007941A40F8800204389178018594104BC6D
:1039700052423E32FFF71DFFF0BD00006BDE73F4D4
:10398000FD855C2CF0B54F0050D27F154ED001372D
:103990004FD0FFF749FF04B44902C20D1143400262
:1039A00001272BA6B446002200237E4220360D00BC
:1039B0003D410C00B4400600FE40344344414D41BB
:1039C000AE0F05D120002900664630CE121BAB4158
:1039D0000824A4440137212FE7D189008910121847
:1039E0004B4180BC17A413CC0137784379437C4307
:1039F0004F05C912CD17C0196941A702A415CD17EB
:103A0000C9196C41DD17801859416C413E22CD1710
:103A1000AC4208D000090E0730430909260731439C
:103A20002411043AF3E7FFF7C4FEF0BD0249002079
:103A3000F0BD02490020F0BD0000F0FF0000F07F63
:103A4000AAB800006BDE1300A3EF0F0021170B00D4
:103A5000F34B98BFEC23F319D6104DCDE3FB470E83
:103A60007AB9BC8ADBC18907CC542C021846E10321
:103A7000053083E7B029F8011E1FE0874505FE00E9
:103A8000249E41ACA9807F008117624515E03F006C
:103A9000E610ABA902F81F008858455500FE0F003C
:103AA000C4AAA90A80FF070056455501E0FF03009C
:103AB000ABA92A00F8FF010045550500FEFF0000F4
:103AC000AAAA0080FF7F0000551500E0FF3F00001C
:103AD000AB0200F8FF1F0000550000FEFF0F0000C2
:103AE0000B0080FFFF0700000100E0FFFF03000064
:103AF0000000F8FFFF0100000000FEFFFF000000D3
:103B00000080FFFF7F00000000E0FFFF3F0000009B
:103B100000F8FFFF1F00000000FEFFFF0F00000085
:103B200080FFFFFF07000000E0FFFFFF0300000031
:103B3000F8FFFFFF01000000FEFFFFFF0000000094
:103B400000000080000000000000004000000000B5
:103B500051434343C9188C46110C83B24B4310B4F4
:103B6000040C614392B280B2504362431C041B0CAC
:103B7000001910BC59411304120CC0185141614482
:103B80007047000048404140484000239C46114B8C
:103B90005B68184700239C460E4B1B6818470E4A6B
:103BA000936F9B0804D200239C460A4BDB6818479E
:103BB000F0B5146E556E576F166FFFF7F4FF064A97
:103BC0001466556657671667F0BD00239C46014B87
:103BD0009B6818476C1C0020000000D0491A002880
:103BE00008D1084670470000C10FC90700D5404200
:103BF000002817D0F44603B40B4B1B68984706BC4B
:103C000081409E384042803107D20B0607D04900E0
:103C1000490AC0051043084360470130F8E7490AE4
:103C20008902F5E770470000681C0020034BDB6F3A
:103C3000FC4618477CDF713D001000006C1C002022
:103C400070B513231E782A48FEF748FA0500012EA6
:103C500011D0012E09DDAB1E1B789B007F2B40DDB0
:103C600024488022290000F0A9F82348FEF72EFA04
:103C7000224B186070BD1F485422290000F09EF8A6
:103C80001F4B1A881F4B9A421CD1A7239B011A88ED
:103C90001D4B9A4216D11D4B1A881D4B9A4211D1C9
:103CA0001C4B1A8894239B019A420BD11A4B1A88F9
:103CB0001A4B9A4206D11A4B1A681A4B9A4201D1F2
:103CC000152307E01848FCF709FF184C094A99002A
:103CD0008C5001331F2BF8D9144B064A1362D36161
:103CE000B7E7134B134A1448422101F04FF9C0467D
:103CF000534600006C1C00204C330000681C002060
:103D0000EE290000C40F0000C20D0000962B000039
:103D1000C0B50000182B0000CC2A000010B5000030
:103D2000FC2C000051ED8764A89000103D3D001070
:103D3000C08F00109C970010F48F001007B56046EC
:103D4000002800D100BE01880A0A0230DF2AFAD119
:103D5000C9B2820804D3028840880004104300E0FE
:103D60000068024A5050039007BD00006C1C002000
:103D7000C30FDB0741000A0E07D0FF2A08D009094C
:103D8000054A8918194340077047190000207047F9
:103D90000249C918FAE70000000000380000F07F6F
:103DA00001480421014B1847800C0020ED20001031
:103DB000014B1B6818470000800C0020014B5B681A
:103DC00018470000800C0020704710B5002802D072
:103DD0000B684968984710BD0100002007E0830088
:103DE0001B185B00501C08601078C01830380A6837
:103DF0001378303BDBB2092BF1D97047F0B5DE46C2
:103E000057464E464546E0B583B093461F000C9B8F
:103E10009A460D9C0E9B99460F9B9B0703D0B84674
:103E20000F00060022E00192A34688464E46B9469E
:103E30000700B44207D2551C4B4641462020B847E4
:103E400001342A00F5E73D004F465C46019B9B4646
:103E5000B1464646B84637002E0007E0013C551CE7
:103E60005346185D43463900B0472A00002CF5D16F
:103E700035003E0047460F9B9B0707D4100003B058
:103E8000F0BCBB46B246A946A046F0BDB0464E4681
:103E9000B9462F005D46531BB342EFD2541C4B462C
:103EA00041462020B8472200F5E7F0B5CE46474608
:103EB00080B585B0944698460C9D0D9C0EAB1B7842
:103EC0009946109A119B129EB7071CD4002B0CD058
:103ED000F7070AD54F46002F02D10C37374204D0DE
:103EE000013B02E030272F550134944201D21F2CB0
:103EF000F8D9F70707D59C4205D21F2C03D83027E5
:103F00002F550134F5E7F70612D5770505D4002CB7
:103F100003D0944221D09C421FD00F9A102A32D055
:103F20000F9A022A37D01F2C0AD830222A55013482
:103F30001F2C05D84A46002A33D02D222A55013499
:103F4000039602930194009543466246FFF756FF9D
:103F500005B0C0BCB946B046F0BD621E012C10D001
:103F60000F9F102F0BD014000F9A102AD8D1B20631
:103F7000D6D51F2CD4D858222A550134D3E7023C79
:103F8000CBE71400C9E7B206EED41F2CECD8782298
:103F90002A550134C7E71F2CD2D860322A55013484
:103FA000C1E7720703D52B222A550134C8E732072F
:103FB000C6D520222A550134C2E7F0B5DE46574661
:103FC0004E464546E0B593B081468A46089209932D
:103FD0001CAB10CB1B789B461E9D219B9846002C4A
:103FE00003D1102342469A4390468023DB00464685
:103FF0001E4042461A4212D0002C22D000260EE06B
:104000003033D9B2771C0AAB995529002000FEF74E
:10401000D7F9AC4216D31F2F14D83E000400290054
:104020002000FEF7CDF9CBB2092BE9D94246920622
:1040300005D54121C918C9B20A39C9B2E2E76121DF
:10404000F8E7270043460693209B05931F9B0493A4
:1040500003955B46029301970AAB0093099B089A6C
:1040600051464846FFF721FF13B0F0BCBB46B246AD
:10407000A946A046F0BDF0B5DE4657464E46454639
:10408000E0B597B00A900B910C929A46209B994606
:10409000219F22AA13789B46249B0993259C289B49
:1040A00098464A463A4302D11032934398468022BA
:1040B000D20045461540434613420AD04A463A4389
:1040C00041D000252E0053460D934D46099B9A463C
:1040D0001BE02E0053460D934D46099B9A4614E073
:1040E0003033DAB2731C99460EAB9A555246230010
:1040F00028003900FEF7A2F9BC4226D819D04B4659
:104100001F2B1CD84E4605000F00524623002800E6
:104110003900FEF793F9D3B2092BE1D94246920652
:1041200005D54122D218D2B20A3AD2B2DAE76122D8
:10413000F8E7AA45E3D94E460D9B9A4608E04E465D
:104140000D9B9A4604E0002602E04E460D9B9A46DF
:1041500043460693279B0593269B0493099B039351
:104160005B46029301960EAB009353460C9A0B9953
:104170000A98FFF79AFE17B0F0BCBB46B246A946B4
:10418000A046F0BDF0B5DE4657464E464546E0B582
:1041900091B0804689460C929A461A9C1B9D22003B
:1041A0002B0020002900FEF7DCFB002800D0ECE00B
:1041B00001225242D44B20002900FEF7CDFB0028FB
:1041C00000D0E2E001225242D04B20002900FEF74D
:1041D000ADFB002800D0D8E00022002320002900F9
:1041E000FEF7A4FB002800D0E4E0069407958023A6
:1041F000DB001E9A1A400D921E9A1A4201D1062324
:104200001C930698079902000B000892099303007B
:104210000A00024300D1D9E0080D4005400DBC4E14
:10422000B44660440A03120B1E00BA4B13431F002E
:10423000FEF7A8FBB84AB94BFEF72DFBB84AB94BBD
:10424000FEF702FB089009910022B74B30003900BD
:10425000FEF7F1FAB54AB64BFEF71DFB02000B0064
:1042600008980999FEF7F0FAFEF7A4FB8346FEF7DB
:1042700089FB06000F00AF4AAF4BFEF70CFB002294
:10428000AE4BFEF7E1FAFEF795FB0890AC4AAD4B5A
:1042900030003900FEF7FFFA06000F000898FEF71D
:1042A00071FBA94AA94BFEF7F6FA02000B00300099
:1042B0003900FEF7C0FA06000F0002000B00FEF7FF
:1042C000EAFA0A900B91089BA14A944663440021A4
:1042D0000022089109921B050993002308933200DC
:1042E0003B0030003900FEF7AFFA0E900F9132001C
:1042F0003B0000208021C905FEF79DFA06000F0053
:104300000022944B0A980B99FEF7A7FA0022924BD1
:10431000FEF79AFA02000B000A980B99FEF79DFA35
:1043200000228E4BFEF790FA02000B000A980B99C0
:10433000FEF793FA02000B0030003900FEF784FA12
:1043400002000B000E980F99FEF787FA0022714BBE
:10435000FEF77AFA089A099BFEF79DFA06000F000D
:1043600008960997069A079BFEF7F6FA00282FD0C1
:1043700001235B429C46E3440022774B3000390026
:10438000FEF76BFA0890099122E01E9B04931D9B97
:1043900003931C9B02930094019553460C9A494643
:1043A000404600F0FFF811B0F0BCBB46B246A9464B
:1043B000A046F0BD002100220691079206948023BA
:1043C0001B069C46AC446346079310E700239B46BC
:1043D0005B466333C62B20D804261E9B1B0528D5BD
:1043E000089A099B190011430FD05D4A5D4B06984E
:1043F0000799FEF7A9FA00287AD000225A4B0698AE
:104400000799FEF793FA002872D01C9B5B4506DDE6
:104410005A469B1A013B1C9303E00526DDE7002367
:104420001C938023DB001E9A1A431E920026002351
:104430009B461D9B9E4265D29F1B02231E9A1A40DB
:104440000A921E9A134202D0002E00D000275B462B
:10445000002B07D0089A099B06980799FEF7FDF9EB
:10446000069007910022002320002900FEF75EFA43
:10447000002800D07CE03D4B1E9A13400493039724
:104480001C9B0293069B079C0093019453460C9A35
:104490004946404600F086F8002E00D183E71E9B77
:1044A0009B0671D54525441C534602004946280009
:1044B000C0475A46D317D2185A4005230593013EE8
:1044C0000496002303930A3302935B46DB0F0193A8
:1044D00000925346220049464046FFF76EFD0A9B74
:1044E000002B00D15FE7020047460C9E1D9D53E064
:1044F0001C9B002B9DD00D9B002B9AD01C9B013B3D
:104500001C9396E7002798E7FFFFEF7FFFFFEFFF81
:1045100001FCFFFF0000F03FFB799F501344D33FA5
:10452000B3C8608B288AC63F0000F83F61436F63C1
:10453000A787D23F71A379094F930A400000E03F5B
:104540001655B5BBB16B0240EF39FAFE422EE63F7D
:10455000FF03000000002C40000024400000184031
:104560002D431CEBE2361A3F80842E41FFF7FFFFFC
:10457000069C079D22002900802000068446614495
:104580000B000692079376E765258CE7541C53468B
:1045900049462020B8472200931BAB42F6D31000B7
:1045A00001E7C046F0B5DE4657464E464546E0B503
:1045B00095B00690079193469946209F1E9A1F9B9F
:1045C00010001900FEF7CDF9002831D10122524226
:1045D000BF4B1E981F99FEF7A9F9002837D1012279
:1045E0005242BC4B1E981F99FEF7B6F900283DD1E8
:1045F0000022B94B1E981F99FEF7AEF9002850D142
:104600000022B64B1E981F99FEF790F9002848D15A
:10461000002200231E981F99FEF788F9002850D128
:1046200000239846229B5B0500D4B6E0002458E0A6
:10463000229B0393219B029303230193A84B009396
:104640004B465A4607990698FFF7D8FB0EE1229B86
:104650000393219B029304230193A24B00934B46A7
:104660005A4607990698FFF7C9FBFFE00423229AF0
:104670001A4022990B4210D09B4B002A0FD00422E3
:104680002299039121990291019200934B465A4637
:1046900007990698FFF7B2FBE8E0944BEDE7032299
:1046A000EEE7229B0493219B039302971E9B1F9C82
:1046B000009301944B465A4607990698FFF762FD0E
:1046C000D4E01E9A1F9B00200021FEF7B4F81E9034
:1046D0001F9101239846A5E70CAB30221A55013FE4
:1046E00001341F2C01D8092FF6D81E981F99FEF708
:1046F00061F90500FEF746F902000B001E981F99AC
:10470000FEF799F87A4BFA009B181A685B680A92D0
:104710000B93FEF7C0F808900991FEF76FF90600B9
:10472000FEF72CF902000B0008980999FEF783F8B0
:104730000890099100226F4BFEF70EF900282ED049
:1047400001363000FEF71AF902000B000A980B99A7
:10475000FEF7F2F8002801D001350026002F2CD1F9
:104760002800FEF70FF902000B001E981F99FEF7B4
:1047700062F806000F0000225E4BFEF7D7F8002813
:1047800046D100225B4B30003900FEF7E5F80028E7
:104790003ED1EB073CD501353AE0062746E700223B
:1047A000544B08980999FEF7C1F80028D6D1002E7D
:1047B00001D0F307D2D50136D0E7AA461F2C11D875
:1047C000013F0A213000FDF7FBFD651C30310CABC9
:1047D00019550A213000FDF7F3FD092E0ED9060008
:1047E0002C00EBE755461F2C0CD87B1E002F09D060
:1047F0000CAA302111551F000134F4E72B00554657
:104800001C00F0E71F2C03D80CAB2E221A550134E4
:104810001F2C10D80A212800FDF7AAFD661C303194
:104820000CAB19550A212800FDF7A2FD051E01D089
:104830003400EDE734000323229A1340012B1CD0EF
:104840001F2C06D84346002B32D00CAB2D221A5514
:104850000134229B0393219B029301940CAB0093A0
:104860004B465A4607990698FFF7C8FA15B0F0BCB0
:10487000BB46B246A946A046F0BD219B002B13D0F3
:104880004346002B02D10C3313420FD0219B013B36
:104890002193190003E00CAB30221A5501348C42ED
:1048A000CED21F2CF7D9CBE72199F8E72199F6E76B
:1048B000229B5B0704D50CAB2B221A550134C8E7A9
:1048C000229B1B07C5D50CAB20221A550134C0E72B
:1048D000FFFFEFFFFFFFEF7F65CDCD4165CDCDC180
:1048E0009090001094900010849000108C90001014
:1048F000A09900100000E03FF0B5DE4657464E4656
:104900004546E0B593B08246884693461193002908
:1049100000D10DE300255646119B1878002800D1E0
:1049200009E3252809D06C1C5B462A004146B047A4
:10493000119B013311932500EEE7013311930027FA
:1049400020E001231F4301321192012418E00223C9
:104950001F4301321192012412E004231F4301324C
:10496000119201240CE008231F430132119201240B
:1049700006E010231F4301321192012400E00024BD
:10498000002C09D0119A1378203BD9B21029F6D8FF
:104990008B00C849CB589F46119B1A781300303BB7
:1049A000DBB2092B10D92A2A13D00B94119B1A7849
:1049B0002E2A1ED0119A1378683BD9B2122959D8E1
:1049C0008B00BD49CB589F4611A8FFF705FA0B9005
:1049D000ECE71C9B1A1D1C921B68002B04DB0B933D
:1049E000119B01331193E1E7022217435B420B93C2
:1049F000F6E78022D20017435A1C11925A7813000E
:104A0000303BDBB2092B0BD92A2AD3D11C9B1A1DB0
:104A10001C921C68002C08DB119B01331193C9E721
:104A200011A8FFF7D9F90400C4E70024F4E78023B4
:104A30005B003B43511C119151786C2901D01F0040
:104A400018E0C0239B001F430232119212E0802322
:104A50003B43511C11915178682901D01F0009E096
:104A6000C0231F430232119204E080235B001F43E6
:104A700001321192119B1878672818D8252800D286
:104A80004CE20300253BDAB2422A00D946E2930009
:104A90008A4AD3589F4680239B001F4301321192BC
:104AA000E8E780235B001F4301321192E2E7782898
:104AB00000D933E2692800D230E20200693AD2B26A
:104AC000012393407E4A134211D11A0600D500E219
:104AD0005B0500D422E21C9B1A1D1C921B689A469F
:104AE000002C00D0B2E10122524253468EE16F28E1
:104AF0000ED006D858283DD0622804D102239C4607
:104B000008E0782839D010239F43063B9C4601E0FB
:104B100008239C46582833D0692803D0642801D044
:104B20000C2297437A0501D50122974369282AD0A0
:104B3000642828D0BA0500D59FE0FA0500D5C1E069
:104B40007A0600D4D3E01C9A111D1C911168FF2233
:104B50000A4005970B9B049303946346029300233A
:104B6000019300925B462A0041463000FFF725FA88
:104B7000050027E010239C46CCE710239C46C9E79C
:104B800020221743C8E7BA0520D4FA0550D47A0684
:104B900066D51C9A111D1C911168FF220A40D0177E
:104BA0001118414005970B9B0493039463460293AD
:104BB000D20F019200915B462A0041463000FFF778
:104BC000FCF90500119B01331193A5E61C9A0732ED
:104BD00007218A43110008311C91116853689946D6
:104BE000DB170C930D930C9A0D9B100048400E9010
:104BF0004A4653400F930E980F990C9A0D9B801ABA
:104C000099410E900F9108970B9B0793069463466A
:104C10000493002305934B46DA0F02920090019112
:104C20005B462A0041463000FFF725FA0500C9E738
:104C30001C9A111D1C911268D0171118414005973C
:104C40000B9B0493039463460293D20F019200914D
:104C50005B462A0041463000FFF7AFF90500B1E797
:104C60003A0605D51C9A111D1C910023D25E96E7C9
:104C70001C9A111D1C91126891E71C9A073207219A
:104C80008A43110008311C9108970B9B07930694E7
:104C900063460493002305930293536812680092BD
:104CA00001935B462A0041463000FFF7E4F9050016
:104CB00088E7C046049800104898001094980010A7
:104CC000419000001C9A111D1C9105970B9B0493A9
:104CD00003946346029300230193136800935B4699
:104CE0002A0041463000FFF768F905006AE73A06F6
:104CF00006D51C9A111D1C9112681204120C28E78B
:104D00001C9A111D1C91126823E7462819D01C9B80
:104D10000733072293431A0008321C9204970B9A18
:104D2000039202941A685B68009201935B462A0022
:104D300041463000FFF736FC0500119B013311930B
:104D4000EAE520231F43E2E7672801D0472802D184
:104D500080231B011F43452801D0472801D1202370
:104D60001F431C9B0733072293431A0008321C92EF
:104D700004970B9A039202941A685B68009201935D
:104D80005B462A0041463000FFF7FCF90500119B05
:104D900001331193C0E502231A003A4091463B4289
:104DA0001DD001241C9B1A1D1C926F1C18785B4699
:104DB0002A004146B0474B46002B14D1119B0133CA
:104DC00011933D00A8E5571C5B4641462020B047A3
:104DD00023003A005C1C9D42F5D81500E2E7012350
:104DE0002A000B9DF6E73A00B1460B9E06E0571CE1
:104DF0005B4641462020C8472C003A00651CA6426D
:104E0000F5D817004E46D9E701330A001978002972
:104E100002D0511E002AF7D152469B1A8022D2009E
:104E2000390011408946174202D0A34200D923001D
:104E300002221100394010913A4209D02A0025007F
:104E400057469A4633004E46994621E022004CE6EA
:104E50002A004546A04606E0541C5B462900202057
:104E6000B0473B0022005F1C0B999942F4D844469E
:104E7000A8463B00250057469A4633004E469946C1
:104E800006E01D000137541C5B464146C84722001E
:104E90003878002804D0002EF4D06B1E002DF0D1FD
:104EA000150053464E46109A002A03D1119B013338
:104EB000119331E50B9F2A0006E0551C5B464146E5
:104EC0002020B04723002A005C1C9F42F5D8150023
:104ED000ECE721233B431C9A111D1C91126805939A
:104EE0000823049303940833029300230193009250
:104EF0005B462A0041463000FFF75FF80500119B32
:104F00000133119308E56C1C5B462A0041462520BD
:104F1000B047119B013311932500FDE46C1C5B46E7
:104F20002A004146B047119B013311932500F3E459
:104F30000A4B9A46EEE4B2465D450DD35B465A1ED7
:104F40005B4641460020D047280013B0F0BCBB466A
:104F5000B246A946A046F0BD2A00F1E7C93D0010BF
:104F600000B585B00290039101210448009313001D
:104F70004A4202A9FFF7C0FC05B000BDCB3D0010BE
:104F800000BEFDE710B5FFF7FBFF000030B583B0B2
:104F90000D001900002A0BD0074B084C019200931A
:104FA0002B000200200000F061F90120FFF7E8FF6C
:104FB000034B1A00F1E7C0469C900010AC90001023
:104FC000A890001010B5EFF30583002B00D000BEB1
:104FD000FDF7DEF8034C01E008CC9847024B9C42F9
:104FE000FAD310BD548800106088001010B503007B
:104FF000080011001B68984710BD0000F8B50700B5
:105000000D001600437D002B02D0002400200CE090
:1050100003681100280098472DE03B7D10E03B68B5
:10502000154802219847601C0134B44214DA002C60
:10503000F3DD2B19013B1B780D3B5A425341DBB288
:105040002A5D0A2AF0D1002BEED1A042E7DA3B68B4
:10505000211A28189847E2E7B04203DA3B68311A70
:1050600028189847002E06DDAD19013D2B780D3B21
:105070005A4253413B75F8BDF099001070B50500D8
:105080000368002B16D00C4B1C6805E0290004C9EE
:105090002000FFF7B3FF2469002C09D02368002B00
:1050A000F9D0064B1B68002BF0D0A342F3D1EDE7FB
:1050B00000232B6070BDC046341700203C17002031
:1050C00070B505000C000B68802B05D023685A1CB6
:1050D0002260E418257170BD0800FFF7CFFFF5E7E7
:1050E00010B5FCF78FFD074A002312184B41002B27
:1050F00003DB054803F068FB10BD01225242034B5D
:10510000F7E7C04640420F00F00C0020FFFFFF7F92
:1051100010B5024803F020FB10BDC046F00C002083
:10512000F0B5CE46474680B583B006000D009046E8
:105130001C00FFF7D5FF81466B1C05D0002C08D062
:10514000184F194B1C6807E0300003F06FFA050098
:10515000F4E7164FF5E72469002C17D02368002BDD
:10516000F9D0134B1B68002B01D0A342F3D12A00C6
:1051700031002000B8474346002BECD06B46D91DC8
:105180000A230B7001222000B847E4E74B46002BAE
:1051900005D1280003B0C0BCB946B046F0BDFFF74A
:1051A000B7FFF6E7FD4F001034170020ED4F001059
:1051B0003C170020094A01E010331A001368002B45
:1051C00008D08342F8D1002907D103691360002376
:1051D000036102E0002900D01060704734170020FE
:1051E00010B5064B1C6801E098472469002C03D0D9
:1051F0006368002BF8D1F8E710BDC04634170020D3
:1052000010B500F045F900F0E7FA012010BD70B5C7
:10521000050003F00BFA040001230122010028001D
:10522000FFF77EFFFFF7DCFF200070BD70B5A2B076
:1052300004000E00FFF754FF0500002301930A4805
:105240003300220001A9FFF78BFE040001A8FFF73D
:1052500015FFFFF7C5FF002D02D1200022B070BD61
:10526000FFF756FFF9E7C046C15000100FB400B574
:1052700083B004A901C90191FFF7D8FF03B008BCAE
:1052800004B0184710B582B00C00144BC3185A4232
:105290005341134A5B009B5E8B4204D06B46DA1D80
:1052A0001470002115E06B46DA1D0D2313700021E8
:1052B0000029F3D183699B06FCD413780360013184
:1052C0000132F5E783699B06FCD413780360013152
:1052D00001320029F6D002B010BDC0460080FCBFEC
:1052E000781D002082B000226B46D91D06E083693C
:1052F000DB06FCD403680B7001320131002AF6D0C2
:105300006B46D87902B0704770B506000D000024D6
:1053100005E0315D034B1868FFF7B4FF0134AC4280
:10532000F7DB70BD7C1D0020F8B506000D000027DE
:1053300005E07C1CF719FFF7D5FF38702700AF4256
:1053400004DA0D4A10688269D206F2D50B4A126857
:10535000002A0AD0084A126850219163506B18390C
:105360000140074B9C4662441160002F01D0380079
:10537000F8BD033FFBE7C0467C1D0020CC16002093
:105380003410000010B5064B1B68002B06D0054AF0
:10539000126800219163044A1068984710BDC04606
:1053A000CC1600207C1D0020D4160020024B1A6869
:1053B00093691B07FCD470477C1D002070B51D4B02
:1053C0001B681D4A934207D0142400281ED01B4B93
:1053D0001B68002B02D070BD1524F6E7174B186030
:1053E000174B196017492000FBF7DCFC0121200056
:1053F000FBF7B0FC0F4B1B6850229A63596B183AAD
:105400000A4011498C4663441A60E4E70B4A12686B
:10541000002AE0D000259D6300212000FBF79AFCC4
:1054200008492000FBF7F4FD044B1D60044B1D6090
:10543000D1E7C0467C1D002000800340CC16002030
:10544000D4160020855300103410000070B50D00F4
:105450001C000D4B1860002A0BDA002C0EDA0A4BE8
:1054600018682900FCF776FC08480121FFF7A2FE26
:1054700070BD02211000FBF7C5FAEEE70221200003
:10548000FBF7C0FAEBE7C0467C1D0020900C002023
:1054900010B5074B1B78074B1B78074B1B78E12196
:1054A0000123002249020548FFF7D0FF10BDC04686
:1054B000F49E0010F09E0010EC9E0010004003408F
:1054C00070470000014B00221A707047971D0020A2
:1054D0004B79FF2B0CD18B79002B0BD1CB79012B86
:1054E0000AD1082A0AD98A78054B1A70092000E0E7
:1054F000002070470020FCE70020FAE70020F8E7D2
:10550000971D00200120704710B5012928D111797D
:1055100053791B020B43134909788B4201D00020B9
:105520001FE05378012B03D0022B12D0002018E08B
:105530009178D3781B021943DB0507D5480A4A0A3C
:1055400001231A407E331940FCF7ECFD0120404254
:10555000F5E7642200210020FCF78CFD012000E02B
:10556000012010BD971D002000487047D89A0010F8
:1055700010B51400012910D15378012B0FD11279E5
:1055800063791B021343072B01D0002006E0054A74
:105590009F33210001F05AFB00E0012010BD0020E4
:1055A000FCE7C046309A00100123037000487047A2
:1055B000109A001010B50A784B781B0213438A78B2
:1055C00012041A43CB781B0613439622D20093424F
:1055D00000D010BD0120002211004042FCF7A2FDC6
:1055E000024B1860024B19607047C046D01600206D
:1055F000D816002010B5FCF705FB0E4A0023121840
:105600004B41002B12DB0C4803F0DEF800280CD0D5
:1056100001200021404201F0DFF9002001F084FC6C
:105620000028F5D1044803F097F810BD012252423A
:10563000024BE8E740420F00701D0020FFFFFF7F94
:1056400010B5024B1878FBF78FFB10BD981D00209A
:1056500070B5174B1B68002B20D0EFF3108272B689
:10566000100019680029FCD0BFF35F8F10494A6011
:10567000104B00221A700B68BFF35F8F1A6080F323
:105680001088002400250C4B1878FBF749FB0028F4
:1056900008D1002400252000290070BDFA24A400B0
:1056A0000025F0E7044B1878FBF75EFBF3E7C046F4
:1056B000481B0020991D0020981D0020F0B585B0E2
:1056C000060014001D000CAB1F78FCF79BFA2200AB
:1056D0002B0012184B41002B09DB02970B9901910B
:1056E0000A9900913000FCF7A3F805B0F0BD012243
:1056F0005242014BF1E7C046FFFFFF7FF0B5C646BF
:1057000000B584B00500884616001F000AAB1C785F
:10571000FCF726F80294019700962A004346FFF70B
:10572000CDFF04B080BCB846F0BD000010B582B01B
:105730002348002103F038F8002820D1214B1B68B2
:10574000002B1AD0EFF3108172B608001A68002AF5
:10575000FCD0BFF35F8F1B4A51601B490B780124BB
:105760006340DBB201240C701268BFF35F8F00212D
:10577000116080F31088002B17D102B010BD0120FA
:105780000021404201F028F9002001F0A5FB0400AF
:105790000B4802F0E1FF002CEFD00C4B1B68002BF4
:1057A000EBD00B4A10689847E7E70A4A01230093B9
:1057B0000023FA2080000021FFF7A0FFDDE7C046AC
:1057C000701D0020481B0020991D0020D0160020CD
:1057D000D81600205156001010B582B0D0231B06F9
:1057E0001C68FBF7BDFFFCF79DF8A04230D1274BAA
:1057F0001B780021002002F061F8254B1B68002B6C
:105800002CD00120FBF744FD224C20702249FF23BD
:105810001840FBF7C7FA20780121FBF79BFA052017
:10582000FBF7B2FA041E1DD00120FBF7D5F90100E9
:105830001A4B1800FBF78CFD194900220520FBF7D5
:10584000DBFA18480121FFF7B5FC200002B010BDBB
:10585000154B164A1648C621FFF798FB0C48FBF774
:1058600035FDCEE70D4808220021FEF7A1FA114AC6
:10587000012300930023FA2080000021FFF73EFF60
:10588000C043C40F0028E0DADBE7C046F89E0010F2
:10589000701D0020981D00202D570010481B00206F
:1058A00041560010A80C0020FC8B0010089B001033
:1058B000089100105156001010B5002001F0F0FAC8
:1058C00010BD000070B505000C00FFF7F5FF0028C3
:1058D00034D0002001F000FB002832D0FCF792F910
:1058E0001B4A002312184B41002B19DB194802F008
:1058F0006BFF002828D0FFF7DFFF002804D000202E
:1059000001F0EAFA00280FD101200021404201F005
:1059100063F8032464420F4802F01EFF200070BDAC
:10592000012252420C4BE1E722002900002001F045
:10593000DFFA041EEFD103246442ECE7032464423F
:10594000ECE703246442E9E703246442E6E7C04647
:1059500040420F00701D0020FFFFFF7FF0B5C646DC
:1059600000B580460C00FCF74DF9314A00231218AF
:105970004B41002B07DB2F4802F026FF002806D101
:1059800080BCB846F0BD012252422B4BF3E7FFF733
:1059900093FF002849D1294B00200021186059604D
:1059A000244802F0D9FEEBE701200021404201F03B
:1059B00013F8002001F0B8FAFFF77EFF0028EFD0BF
:1059C000002001F033FB002820D0A542E8DA661B56
:1059D000002001F02BFB0200864200DC3200002A8E
:1059E000E2D043465919002001F0FCFA06000120DC
:1059F0000021404200F0F0FF002001F095FAAD19BF
:105A0000FCF700F90D4B18605960DEE7FCF7FAF877
:105A10000A4B1E685F680A4A002392197B4199422B
:105A2000BED8D2D19042D0D9BAE70025CDE7C04642
:105A300040420F00701D0020FFFFFF7F780E002006
:105A400020A1070000487047849B00100048704761
:105A5000309B001010B50400154B1B78002B0ED0A6
:105A6000002C11D1134B144A5A80012301335B00DF
:105A70009BB21048C02292001343038010BD0C4813
:105A8000112100F025F8EBE7052C0ED80B4BA400F4
:105A9000E4580023122BE9D8E15C0029E6D0013359
:105AA000044A58008152DBB2F4E70020E6E7C04622
:105AB000801D00200C17002009040000189B001016
:105AC00010B5024800F032F810BDC046601B00203F
:105AD00010B5002901D000230AE0104B104A1148EC
